:020000040800F2
:10000000981C0020D5000008410C0008E1090008F8
:1000100000000000000000000000000000000000E0
:100020000000000000000000000000002116000891
:100030000000000000000000B50C00086D1800086A
:10004000E7000008E7000008E7000008E7000008F4
:10005000E7000008E7000008E7000008E7000008E4
:10006000E7000008E7000008E7000008E7000008D4
:10007000E7000008E7000008E7000008E7000008C4
:10008000E7000008E7000008E7000008E7000008B4
:10009000E7000008E7000008E7000008E7000008A4
:1000A000E7000008E7000008E7000008E700000894
:1000B000E7000008E7000008E70000081522000834
:1000C0000348854600F046F8004800474D2F0008D9
:1000D000981C00200448804704480047FEE7FEE7DC
:1000E000FEE7FEE7FEE7FEE771180008C100000822
:1000F00030B50B46014600202022012409E00D46C0
:10010000D5409D4205D31D469540491B2546954047
:1001100040191546521E002DF1DC30BD03460B433D
:100120009B0703D009E008C9121F08C0042AFAD2AD
:1001300003E00B780370401C491C521EF9D2704733
:100140000321001D401E037812021A43491EF9D5EF
:1001500010467047064C0125064E05E0E36807CCC3
:100160002B430C3C98471034B442F7D3FFF7ACFF55
:100170002C3500084C350008044940220028086846
:1001800001D0104300E0904308607047006C0040CD
:10019000044920220028086801D0104300E0904361
:1001A00008607047006C004004494A6803231B073D
:1001B0009A434A604A6802434A607047006C0040B4
:1001C000FEB5002069468880964D1DE10889070725
:1001D0003F0F22D09348B90040380E183068694666
:1001E0008880888800047CD530688F49084030605A
:1001F00028208E49784344189034A07A002820782B
:1002000070D000F08FFB400420786CD500F092FB9A
:100210000090002868D0E1888CE00889C00612D4DC
:10022000804840380168824A114001607F4C207E3E
:1002300000F0B0FB2063A16A0818A0627D4800218D
:1002400000684268EAE0794C764E9034403E31686E
:10025000684681808088000513D5207800F08AFBED
:10026000A06102462046A188803800F013FD306866
:100270006D49084030606F48006881686B48884766
:10028000C2E06846808800049FD531686648014016
:100290003160207800F06EFBA061002809D023694E
:1002A0000246A188184600F0F5FCA16920694018B3
:1002B000206160480021006802685C489047286916
:1002C0005D4980B24118E0683E280ED9C202120C86
:1002D000C00601D1521E92B290020122D2031043F5
:1002E0000AE04AE015E01FE028E0C203120CC00754
:1002F00001D0521C92B29002088030684F490840E9
:10030000012109034840490048404D4908433060F5
:100310007AE000F02FFB0090002813D0A18820691C
:10032000009A00F0B7FC0DE000F014FB00900028EC
:1003300004D021892069009A00F0ACFC20780021CB
:1003400000F088FAA16900980818A0612169009856
:100350000A1822616069002803D0E36800998B4283
:1003600006D934482178006802683048904704E094
:1003700083B221782D4800F07AF96846808800061B
:1003800042D52820474329483C183068284908406E
:1003900030601834A07A002820780DD000F0C2FA1E
:1003A0004006207813D500F0C5FAA061002819D0C6
:1003B0000246E188206913E000F0ECFAA061002811
:1003C00014D00246A188206901F098FF0EE000F0E9
:1003D000C1FAA061002805D0236902462189184688
:1003E00001F08CFF2078012100F034FA207800F031
:1003F000D1FAA06121690A18226163692178002B72
:1004000009D00A4800F0AEF968686946088100041E
:1004100000D5DBE6FEBD0748006842680348904708
:10042000F2E70000405C00408F0F0000F000002069
:100430000F8F0000DC000020066000408FBF00002E
:10044000808000008100064808180168490405D52D
:100450000168044A1140044A1143016070470000DA
:10046000005C00408F8F000080C0000081000648C3
:1004700008180168490605D50168044A1140044A74
:100480001143016070470000005C00408F8F000046
:10049000C080000003498A69CB131A438A61012195
:1004A00081707047405C0040CA09490610B5490E8A
:1004B000282359430C18002A01D0183400E0903446
:1004C000A07A0028607814D0002820781AD0FFF78E
:1004D000B9FF2078FFF7CAFF207801F011FA2078E1
:1004E000002101F089F92078002101F04DF9002068
:1004F00010BD0028207802D0FFF7B8FF0EE0FFF70C
:10050000A1FFF0E7FFF79EFF2078FFF7AFFF20780D
:1005100001F006FA2078002101F036F92078002158
:1005200001F06AF9E3E770B5CA0906D04906490E39
:10053000282251430C18183403E0282251430C1888
:100540009034607800250028207806D0FFF78EFFD1
:100550002078302101F050F906E0FFF773FF032106
:100560002078090301F010F9A570002070BD70B566
:100570000E064906490E0D46282461430C18002139
:10058000002E03DA01206076183401E090346170A7
:10059000E260E3702800207002D16162E1612162B3
:1005A00021616161A161A170002B06D0012B30D0C7
:1005B000022B05D0032B06D128E00121490200E0DF
:1005C000002101F031F9A07A03252D03002823D062
:1005D000207801F09BF82289E188207801F030F83A
:1005E00060780028207831D0FFF72CFF2078FFF7C3
:1005F0003DFF207801F084F92078002101F0FCF81B
:100600002078002101F0C0F8002070BD03214902CC
:10061000D7E701218902D4E76078A18800282078F3
:1006200007D001F0CBF82078FFF720FF20782021B9
:100630001AE001F07BF8A08981B2207801F086F8F9
:100640002078FFF7FFFE20782946DBE7FFF7FAFE68
:100650002078FFF70BFF207801F062F92078294617
:1006600001F092F82078002101F0C6F8CCE738B507
:100670004906490E2824614300250C18A034009532
:100680002CC41C3CE16818468B4203D9401A0091E7
:10069000606101E000936561A07A002800980BD0AA
:1006A00082B26178207800F0E3FF0321207809030B
:1006B00001F06AF8002038BD81B2207801F046F8D8
:1006C000F3E70000F0B50B4C0B4E0C4F002201710C
:1006D000D3B2980005192868304018433843286081
:1006E000521C032AF4D38020014302484030C160E9
:1006F000F0BD0000005C00408F8F00008080000093
:1007000070B5CA0906D04906490E282251430A1875
:10071000183203E0282251430A1890321078012140
:1007200009030123002807D054789370002C0FD0C0
:10073000102101F061F80DE0074C2068074D2840BA
:10074000484010214840064908432060937001E06A
:1007500001F01AF8002070BD005C0040BFBF00002F
:100760008080000038B54906490E282400254C43F6
:1007700024180095217628342CC41C3CE1681846C6
:100780008B4203D9401A0091606101E000936561DA
:10079000A07A002800980BD082B26178207800F00F
:1007A00067FF207800F0BEF840060CD521890BE0E9
:1007B00082B2A188206901F0A1FD009881B2207861
:1007C00001F00CF809E0E188009882B2206901F09C
:1007D00095FD6178207800F03DF82078302101F017
:1007E0000BF8002038BD000010B5012282700021F6
:1007F0000171C2608160104600F01CFF002000F013
:1008000019FF002001F01EF8002000F00BFFBF20B0
:1008100002490002086000F00DFF10BDBC0000207E
:1008200030B50C064906490E282569430818002CE6
:1008300001DA183000E0903099B2002A06D0012287
:100840008272C180190C0181002030BD00228272A9
:100850008180F9E7084B8000084AC018002907D0BA
:10086000012904D101681140054A11430160704714
:1008700001681140034AF8E7005C00408F8F0000D8
:1008800080C00000C0800000F0B500220124234693
:100890000D6893401D409D422AD10D79012D01D054
:1008A000022D12D1876855000326AE40B7438760FA
:1008B0004E79AE4085682E43866085889D4385804D
:1008C00085888B7993401D438580066855000323F6
:1008D000AB409E4306600E790768AE403E4306601B
:1008E000C6689E43C660CB79AB40C5682B43C360E6
:1008F000521C102ACBD3F0BD4B07DB0E9A40C9081F
:1009000010B589000818016A0F249C40A1430162B8
:10091000016A1143016210BD002A01D08161704754
:1009200001857047024980004018006880B2704716
:10093000005C004005490969C00089B208180449F3
:10094000401840888005800D70470000405C0040E2
:100950000060004005490969C00089B208180449CF
:100960004018C0888005800D70470000405C004042
:100970000060004005490969C00089B208180449AF
:100980004018C0888005800D70470000405C004022
:100990000060004005490969C00089B2081804498F
:1009A000401840888005800D70470000405C004082
:1009B0000060004010B50848046BC16A406B08181D
:1009C00009D00822054900F00CF80449042210312E
:1009D000204600F006F810BD80F7FF1F1E00002023
:1009E000FEE770B500231D460EE0040F0A2C02D26C
:1009F0005E00303401E05E0037348C555C006418D2
:100A000000015B1C6570DBB29342EED370BD000049
:100A100070B50F490546087B0E4C002809D188683F
:100A2000002806D06078002803D102212846FFF76D
:100A300067FE81212846FFF763FE6078022805D112
:100A40001F23034A02212846FFF711FE70BD000054
:100A50000814002078000020F8B5274C07462646E9
:100A6000203660687060A068B0600221384601F0EE
:100A70008DF8224D1F280BD121492068884207D1CB
:100A8000617B012904D8A07B002801D0102807D958
:100A9000607B2022052100F0E5FB0220687006E063
:100AA000154A38460F3200F0ABF9002803DA384611
:100AB000FFF7AEFFF8BD28780228FBD00128F9D057
:100AC0000328F7D06988002911D0A3680D4A384659
:100AD0008B4200D219468BB2B168C91AB1600021AD
:100AE0003173042129708121FFF73CFEF8BD0021FC
:100AF000384600F089F8F8BD08140020780000207E
:100B0000555342430812002010B5094C6278022A5E
:100B100007D0C90904D0012A02D0012100F074F8DD
:100B200010BD8121FFF7ECFD0020607010BD0000BA
:100B30007800002010B504460B480078022805D044
:100B4000032801D004280ED1002109E007480246FD
:100B5000417B0F32204600F053F9002803DA0121CF
:100B6000204600F051F810BD780000200814002045
:100B700010B504460B48007800280FD001280CD18E
:100B800009480246417B0F32204600F039F900281F
:100B900003DA0121204600F037F810BD2046FFF7A8
:100BA0005BFF10BD780000200814002001490020E0
:100BB000087070477800002010B5084A04460021EC
:100BC00011700748517000680168002088471F2392
:100BD000044A02212046FFF74AFD10BD780000209C
:100BE000740000200814002010B5054900220A7086
:100BF00001224A701F23034A0221FFF738FD10BD6E
:100C0000780000200814002010B504460A4A09485C
:100C1000106011730949002008700D2381212046BE
:100C2000FFF7A0FD044A1F23203A02212046FFF7C8
:100C30001EFD10BD5553425328140020780000209B
:100C40007047000030B5837801210278002B15D061
:100C500094080E4BA400E41823689207D50EFF22D7
:100C6000AA40934342789207120EAA401A43226088
:100C70000078C006C00E8140054804E0D006C00ED2
:100C8000814003488030016030BD000000E400E096
:100C900000E100E0064B521C5208C918002A05D09A
:100CA0000B880380801C891C521EF9D170470000FC
:100CB0000060004070470000044A0029516901D0DB
:100CC000014300E081435161704700000010024081
:100CD000044A0029D16901D0014300E08143D16178
:100CE0007047000000100240044A0029116901D039
:100CF000014300E081431161704700000010024091
:100D0000044A0029D16801D0014300E08143D16049
:100D1000704700000010024004490A6B80239A4388
:100D20000A630A6B02430A63704700000010024026
:100D3000F0B5224C072800D0207022781F4D0626DF
:100D4000052104271E48130001F0ECFA06040D12D9
:100D5000171F280B6868002801D02170F0BD00F033
:100D600031F82670F0BD00F02DF82770012022E048
:100D70000220607003202070F0BD6078401E60701B
:100D800060780028F8D12770F0BD0268102392B275
:100D90001A43026021700A206070F0BD6178491E1C
:100DA000617061780029F8D10168102289B29143FD
:100DB0000160267000206860F0BD0000380000204F
:100DC000405C004004480168042289B291430160FC
:100DD000BF21090201607047405C0040891800B5DE
:100DE000064A9268914206D92122052100F03AFA7A
:100DF0000020C04300BD002000BD0000A400002072
:100E0000F8B50B464D49002448611078661E4C4DDC
:100E10004C4F23286AD010DC1A2852D008DC4A49EB
:100E20000028096819D003282AD0122811D12CE0F3
:100E30001B2844D01E280CD141E02A2865D004DCB0
:100E4000252858D0282804D15AE02F2862D05A28C3
:100E500041D02022052118460FE03C481F468268F9
:100E6000002A02D0407B202259E089681846884732
:100E700000285FD03A220221384600F0F3F957E00B
:100E80001146184600F0BCF9F8BD5078C00703D0F1
:100E900007202F4928800BE0C86924214B43C11843
:100EA00008791279401D824200D81046288003E05C
:100EB000401E80B20A5C3A540028F9D114E02C801C
:100EC00012E0082023492880401E0004000C0A5C20
:100ED0003A54F9D108E008201F492880401E000438
:100EE000000C0A5C3A54F9D12046F8BD1146184668
:100EF00000F04CF9F8BD1146184600F013F9F8BDA2
:100F00001146184600F0BCF8F8BD1146184600F02E
:100F1000BFF9F8BD52781846920702D52422052160
:100F2000ABE70A8AC96892B2FFF758FF002801DAD6
:100F30003046F8BD2C800020F8BD0000A400002041
:100F40007A000020081200207400002008140020FD
:100F5000143500081B35000823350008F1B51D4D78
:100F6000012428696402A04200D204466968204630
:100F70000F46FFF7BDF886B23946E868FFF7B8F8C4
:100F80000246154833460068144907690098B84777
:100F9000002807DA11220421009800F063F90020EC
:100FA000C043F8BD23460D4A81216869FFF7DAFB8B
:100FB000E8680B490019E8602869001B28618A6805
:100FC000121B8A60002802D1064903200870002005
:100FD000F8BD0000A40000207400002008120020CA
:100FE0002814002078000020F1B521480126056969
:100FF000760282B0B54200D335461D4C2846616862
:101000000091FFF775F887B20099E068FFF770F874
:10101000024618483B460068174944690298A047B1
:10102000002807DA03220421029800F01BF90020AF
:10103000C043FEBD0E48C1684919C16001694C1B1F
:101040000E4904618A68521B8A60002C0AD0B4429F
:1010500000D33446A3B2084A02214069FFF707FBD8
:101060000020FEBD00214069FFF7CEFDF8E700003B
:10107000A400002074000020081200202814002082
:10108000F3B5234F81B038780D46002838D1214E72
:10109000307BC00930D020480068816801988847BB
:1010A000002805D03A220221019800F0DBF814E074
:1010B000A81CFFF745F800BA010A68790902174C25
:1010C0000143E160287AEA790002104342BA2261C2
:1010D0000198FFF783FE002802DA0020C043FEBD1E
:1010E000022038706168E0684843E0602069484346
:1010F0002061B168814203D02022707B0521D4E7B2
:1011000001200749400208800198FFF727FFFEBD34
:10111000780000200814002074000020A4000020A3
:101120007A00002010B504461448154A0068111DC5
:10113000436820469847002807D03A2202212046DB
:1011400000F090F80020C04310BD0D4A0D48121F5A
:101150009168491E0B0E03700B0C43700B0A8370D1
:10116000C17051680A0E02710A0C42710A0A82713A
:10117000C171054908200880002010BD74000020BE
:10118000A8000020081200207A0000207CB5054647
:101190000021184C08466054491C89B20C29FAD326
:1011A00015486A46006801A9436828469847002800
:1011B00007D03A220221284600F054F80020C0430C
:1011C0007CBD0820E0700198401E010E2171010CC9
:1011D0006171010AA171E071022020720098010C76
:1011E0006172010AA172E07204490C20088000209B
:1011F0007CBD000008120020740000207A0000204E
:10120000F0B50022134814468454521CD2B2122A5C
:10121000FAD3702202700C22C2710F4A13785578EB
:10122000AB420ED0DE000D4D5B1CAF5D87707519B3
:101230006E7906732D794573D8B21070042800D1E9
:1012400014700748122202800979122900D80180FF
:101250000020F0BD08120020A40000203814002057
:101260007A00002030B50848084C4378DD0061550D
:1012700011022A195B1C5160D9B24170042901D1B5
:101280000021417030BD0000A4000020381400206F
:10129000F3B52C4E81B030780F46002803D001986A
:1012A000FFF7A2FEFEBD284D287BC00937D1274C91
:1012B0002068816801988847002804D03A2209E014
:1012C000FFF7D0FF1EE02068C1680198884700281A
:1012D00003D0272202210198F2E7B81CFEF730FF65
:1012E00000BA010A78790902194C0143E160387AA1
:1012F000FA790002104342BA22610198FFF76EFDAD
:10130000002802DA0020C043FEBD6168E06848435F
:10131000E060206948432061A968814203D020220F
:10132000687B0521CCE7012131704902884200D356
:10133000084683B2074A02216069FFF798F9002046
:10134000FEBD00007800002008140020740000207A
:10135000A40000200812002040220029018801D0AA
:10136000114300E09143018070470000F0B5012176
:101370008E0387B03046FFF7ABFC01218804FFF7EE
:101380009BFC002203212948FFF7B6FA00220F2117
:101390002648FFF7B1FA00220E212448FFF7ACFAE5
:1013A000022569460D7100248C71CD7103204871AE
:1013B000280300901D48FFF767FAA80300906946CC
:1013C0001A48FFF761FA694618480096FFF75CFA79
:1013D000012669460E71EF0214480097FFF754FA90
:1013E000012239461148FFF797FA114800F096F8A4
:1013F0006946FF200C810530488107200002888162
:10140000CD810E82280248828C82CC8207200883FC
:1014100002A9074800F0AAF83946054800F0D2F8BA
:1014200001210348FFF798FF07B0F0BD0004004812
:1014300000380040F8B5010B040501220D03240D0E
:10144000120329460F4801F0A7FE284601F080FE4E
:101450000020FF2101220B4E52020319401C80B2D2
:10146000F1549042F9D30024FF27013720022918B4
:1014700080193A4601F004FF641CA4B2102CF5D385
:10148000F8BD000008020020F7B582B000200190EE
:10149000080B00900F0501203F0D0003C41B1546EB
:1014A000A24200D8144600980122060312033146D6
:1014B000194801F071FE304601F04AFE002008E0B4
:1014C0000199C3190A180299401C895C124A80B21A
:1014D000D154A042F4D3002738020F4A31188018A3
:1014E000FF22013201F0CCFE7F1CBFB2102FF3D3DC
:1014F000A5420ED000980027401C009001980019CA
:101500000190281B012485B22403A542CBD82C4688
:10151000C9E705B0F0BD0000080200200D4910B574
:10152000884209D1841401212046FFF7E9FB0021FC
:101530002046FFF7E5FB10BD07498842FBD10414A4
:1015400001212046FFF7D0FB00212046FFF7CCFB0E
:1015500010BD0000003001400038004002461289F2
:1015600000200A4200D001207047000030B50388F7
:10157000C122920113400A88CC890D892243CC886C
:101580002C4322434C8922438C8922431A430280F4
:101590008288094B1A408B88134383800A8A02820F
:1015A0000288042349889A4311430180818B034AAE
:1015B0001140818330BD0000FFF00000FFF7000004
:1015C000007B70478288034B1A40828082880A43DE
:1015D00082807047FFEF00000173704701204002D6
:1015E00010607D2040010860002070470020704797
:1015F00000207047002070470020704710B5144647
:1016000008461A46214601F069FE002010BD10B5BB
:10161000144608461A46214601F067FE002010BD18
:1016200070470000C0080249C00008617047000010
:10163000405C00400149086070470000405C004089
:1016400030B54C08084964000B69C0009BB21D18F6
:10165000064B5208ED182C800969520089B208180F
:10166000C018828030BD0000405C00400060004037
:10167000F0B5244BC50000290DD001290AD1186905
:1016800080B24119204809184A80196989B249195C
:101690000818C280F0BD1B4800691B4980B2401980
:1016A000891C46185009411E8C465308591C3E2A75
:1016B00009D90446D70601D16446A4B2A402012781
:1016C000FF033C4304E01C46D70700D00C46A402AD
:1016D00034800C4C2469A4B264190B4DAD1D6419FF
:1016E0003E2A08D9D10601D1604680B2800201218C
:1016F000C903084303E0D00700D00B4698022080BE
:10170000F0BD0000405C00400060004081000448E3
:1017100009180868034A1040034A104308607047DC
:10172000005C00408F8F000080810000054A49085E
:101730001269490092B2C0001018034A80188180D3
:1017400070470000405C0040006000400C4A126995
:10175000C00092B210180B4A82183E2909D94809D4
:10176000C90601D1401E80B280020121C90308438D
:1017700004E04808C90700D0401C80021080704770
:10178000405C004006600040820009481218106862
:10179000084B1840CB0402D501231B035840890491
:1017A00002D50121490348400349084310607047AE
:1017B000005C00408FBF000080800000054A49089F
:1017C0001269490092B2C0001018034A80180180C3
:1017D00070470000405C004000600040044A12690D
:1017E000C00092B21018034A801841807047000070
:1017F000405C0040006000408200084812181068F9
:10180000074B1840CB0601D510235840890601D557
:10181000202148400349084310607047005C0040A5
:10182000BF8F0000808000008200044812181068FA
:10183000034B18400843106070470000005C0040F4
:101840008F8900000149486070470000405C0040FB
:1018500005480168082289B2114301600168042229
:1018600089B2114301607047405C0040704700003E
:101870001E48016801221143016041681C4A114061
:10188000416001681B4A1140016001680122920415
:101890009143016041687F22D20391434160C16A54
:1018A00009090901C162016BFF22543291430163AE
:1018B000416B114A11404163002181600F4A11219F
:1018C00011604168416041684160416B012212042E
:1018D00011434163416B8903FCD541688908890044
:1018E000416041680322114341607047001002408B
:1018F0000CB8FF80FFFFF6FEFEFFFEFF0020024057
:101900008100044809180868034A1040034A10433C
:1019100008607047005C00408F8F000080C00000AE
:101920008100044809180868034A1040034A10431C
:1019300008607047005C00408F8F0000C08000008E
:1019400010B5FF220932125852689047002010BD8E
:1019500010B5134600240A462146FEF788FE2046AD
:1019600010BD10B5134600240A462146FEF7FAFEC4
:10197000204610BD10B50021FEF7C2FE10BD10B507
:10198000002405214170234622462146FEF76FFEC2
:10199000204610BD10B58263022342634370134694
:1019A00000240A462146FEF7DDFE204610BD10B594
:1019B000002404214170234622462146FEF7D2FE30
:1019C000204610BDF8B5C71DF9370446002907D0D9
:1019D000B8684269002A46D0A078032841D042E086
:1019E000254660781835022802D004282ED03AE027
:1019F000E968E8690091884207D9401AE86182B233
:101A000020462969FFF7ADFF2DE0286A0646FEF75C
:101A10006FFB00290DD1009886420AD3686A86427E
:101A200007D2002211462046FFF79BFF0020686284
:101A300019E0B868C168002904D0A078032801D152
:101A4000204688472046FFF79AFF0CE0074D28689C
:101A5000002808D0C1B22046FEF734FE00202860DE
:101A600001E0204690470020F8BD0000E40000207F
:101A700010B5C21DF9320446002907D0906882696A
:101A8000002A27D0A078032822D023E020466178BE
:101A9000903003291ED1C369C1688B420BD9591AF2
:101AA000C161C268914200D311468AB201692046E1
:101AB000FFF74EFF0EE090680169002904D0A0787E
:101AC000032801D1204688472046FFF770FF01E038
:101AD00020469047002010BDF8B5044648880E46C1
:101AE000010AE51DF9350B0000F01CFC044B031046
:101AF000184B2969207B0A68694690470146F0889F
:101B000040282DD108206A46108032E0A968207B49
:101B10000A6A694690470146686121E0C0B2030045
:101B200000F000FC0604080C1014182F2969207B13
:101B30004A6812E02969207B8A680EE02969207BC7
:101B4000CA680AE02969207B0A6906E02969207BC6
:101B50004A6902E02969207B8A6969469047014603
:101B60006846008800280BD0F288002A08D08242FC
:101B700001D968460288684602802046FFF70AFFBE
:101B8000F8BD20460021FEF7BBFDF8BD28225143D9
:101B900008188030008D80B2704770B5002300288F
:101BA0001CD00446002502E06D1CEDB2641C2678B2
:101BB000002EF9D16C00A41C1480CC5403225B1CB1
:101BC000CA5400245B1C06E0CA545B1CDAB28C5475
:101BD000521CD3B2401C0278002AF5D170BDF8B572
:101BE0001E4615460F46044600F0FDFA2946E51D3F
:101BF000F9352A460832C2C2FEF7DCFE2046FEF75F
:101C0000F3FDE86800688047204600F0E1FA2046CE
:101C1000FEF740FCF8BD10B5FEF78CFF002010BDAC
:101C200010B5FEF7A5FF002010BD10B504468121B8
:101C3000FEF73AFC02212046FEF736FC2046FEF76E
:101C4000B5FF002010BD000020200880004870472C
:101C5000F434000810B50446982300228121FEF7D1
:101C6000DFFDD823002202212046FEF7D9FD022302
:101C7000402281212046FEF77AFC022340221946A9
:101C80002046FEF774FC2046FEF796FF002010BDAC
:101C900070B50C46064609786020244D08402CD0CB
:101CA000202840D16078FE2802D0FF281BD112E006
:101CB0006088002817D1E088012814D1C80912D003
:101CC0001B480068806980470006000E28700AD013
:101CD000012216491CE06088002804D1E088002811
:101CE00001D1C80905D021463046FFF743FE022046
:101CF00070BD3046FEF778FF15E0607801280ED001
:101D00000A2802D00B280ED106E008490122491CFE
:101D10003046FFF73FFE06E0A078687003E02179C7
:101D20003046FEF7F1FE002070BD0000A00000204C
:101D300074000020027C0A70427C4A70C37C827C62
:101D40001B02D2184A80437D027D1B02D2188A8072
:101D5000C37D827D1B02D21892B2CA800121C26368
:101D60004170704710B50022044618231146FEF753
:101D700057FD5823002280212046FEF751FD002305
:101D8000402219462046FEF7F2FB00234022802124
:101D90002046FEF7ECFB0120A070207BFF340134CD
:101DA000E16849688847002010BD10B50446FF303F
:101DB0000130C06800698047E078A070002010BD45
:101DC00010B5FF2109310958C969002900D0884799
:101DD000002010BD10B5C21DF93214469268126879
:101DE0009047E06880688047002010BD70B5897812
:101DF000164D04462970012904D920460021FEF71A
:101E00007FFC70BDA078022813D00328F5D10029EB
:101E100015D02078884208D001462046FFF790FD73
:101E2000297821702046FFF7D5FF2046FFF7BFFD38
:101E300070BD0029F9D021700320A070F2E70220C4
:101E4000A07021702046FFF77BFDEEE7E000002048
:101E50001CB504466946FFF76DFF68460178C80661
:101E6000C00E0AD001280DD0022810D0C909C9011E
:101E70002046FEF745FC00201CBD6946204600F0C8
:101E80000BF8F8E76946204600F0E6F8F3E7694604
:101E9000204600F07BF8EEE7FEB5002200924F7876
:101EA0001646C21D01240225F9323B0000F03AFA21
:101EB0000A3656474B47090647272447FFF70CFECB
:101EC0005FE006468888002814D1C888002811D110
:101ED00088784706B0787F0E03280BD02A483771E0
:101EE00047603046FFF763FD002F01D0B57048E032
:101EF000B47046E0304622E0FFF778FF41E00196FB
:101F0000C98801291BD18178022902D0032916D161
:101F100001E001220FE0012201460DE001968178E7
:101F2000022901D003290AD101948168002901D036
:101F300003210191022201A9FFF72CFD21E00021DC
:101F4000FEF7DEFB1DE005464888012819D1AC608C
:101F50009068826828469047284610E004468078BA
:101F6000022803D0032801D02046E8E7488801284A
:101F700007D1A66090688268204690472046FFF708
:101F800016FD0098FEBD0000E0000020F8B50446F4
:101F900000200D460746009068780979002835D062
:101FA000E61DF936012819D0032853D1A07802285C
:101FB0003CD003280DD101E020460CE068880028C1
:101FC0001BD1002919D0802917D02046FEF798FB95
:101FD00013E020460021FEF793FB3BE0A0780228A7
:101FE00024D00328F5D16888002806D1002904D020
:101FF000802902D02046FEF796FAB068294682680A
:10200000204690472046FFF7D2FC23E0A078022824
:102010000CD00328DDD1CA090120002A0BD04906C3
:10202000490E282251430919897E0BE0002911D05D
:102030008029C1D10EE00A0607D42822514309198C
:102040008031897C002900D0009002226946204618
:10205000FFF7A0FC3846F8BD70B50446807800252F
:102060000E46032810D1307901280DD8FF20093001
:102070000059826820469047F1880546294307D1D8
:102080002046FFF794FC03E020460021FEF738FBD2
:10209000284670BD10B58178C17004218170FF3071
:1020A0000130C068C0688047002010BD10B50A46E6
:1020B000024903A0FFF771FD004810BD581400202D
:1020C0004D534320436F6E66696700007047000000
:1020D0001220088000487047BE3300087047000097
:1020E00010B5FFB0FF24D7B0013422460E498CA8AA
:1020F000FEF714F86946002000F0A2FC0A220BA1AA
:10210000CCA800F0AFFCD5AB22468CA9CCA800F03F
:102110008BFDCCA800F08AFC0021084600F090FC62
:102120007FB057B010BD0000D0330008303A2F7494
:102130006573747573622E5458540000704770476D
:1021400010B50A46024903A0FFF727FD004810BD5D
:10215000581400204D534320496E746572666163C4
:10216000650000000420088000487047BA3300086A
:1021700010B50A46024903A0FFF70FFD004810BD45
:102180005814002053544D6963726F656C65637415
:10219000726F6E696373000010B50A46024903A0AE
:1021A000FFF7FBFC004810BD581400204D6173730D
:1021B0002053746F7261676520696E204653204D0D
:1021C0006F6465001A200880004870471C000020DA
:1021D00008B51F21684601700021417001218170FE
:1021E000FEF730FD08BD10B50121C805FEF770FDF2
:1021F0000020FEF791FD0121C806FEF769FD0120D0
:102200004007FDF7D1FF0120FDF7B6FF0120FDF7E4
:10221000BFFF10BD10B500F001F810BDF8B50021EA
:10222000684601802B4D6968018000882A4C21682E
:102230000840C00B01D0FDF7C3FF68460088218825
:10224000264E0840400509D5254868603068016978
:102250002448884700212348FEF734FA684601885D
:1022600020680140890401D51F49696069460988D1
:102270000140C80408D51D48686030688169194864
:1022800088470020FEF754FD6846008821880840F2
:10229000000507D5164868603068416911488847CD
:1022A000FFF7D6FA6846008821880840800505D5E2
:1022B000104868603068C1680A48884768460088E6
:1022C00021880840C00504D50B4868600720FEF748
:1022D0002FFDF8BD405C0040BC000020DC00002069
:1022E000FFFB0000F0000020FFDF0000FFEF000018
:1022F000FFF70000FFFD0000FFFE0000084B521C2E
:1023000010B55208C918002A08D0437804781B0277
:1023100023430B80801C891C521EF6D110BD000087
:102320000060004030B47446641E2578641CAB42E3
:1023300000D21D46635D5B00E31830BC184702E025
:1023400008C8121F08C1002AFAD170477047002040
:1023500001E001C1121F002AFBD1704770B504468D
:102360000A46214640780123303100F04BFB00281B
:1023700001D0032070BD11481149005B884201D093
:10238000022070BD20466730FDF7DAFE6621095D48
:10239000000208430B4D0002A8420AD020468330B9
:1023A000FDF7CEFE8034A178000208430002A84267
:1023B00001D1002070BD012070BD00002E02000080
:1023C00055AA000000464154F0B515460A4601687A
:1023D0008BB00B78303B092B09D84C783A2C06D1BE
:1023E000891C0160002B02D00B200BB0F0BD90487F
:1023F00004681460002C10D02078002804D0607885
:1024000000F009FBC1070AD000202070607000F0C6
:10241000DBFAC10709D00320E7E70C20E5E7002D30
:1024200001D0400705D40020DFE7002D03D040078E
:1024300001D50A20D9E7002120460391FFF78EFF3E
:10244000012811D12546FF35EF35287900287DD0A8
:1024500028460930FDF774FE297A00020843014638
:1024600003902046FFF77AFF032802D000286DD1A1
:1024700001E00120B9E720462330417E027E0802B8
:102480001043C11FFF39FA3974D125464035E88819
:10249000002806D120465530FDF752FE297D000266
:1024A0000843E06107902978E170012901D00229F1
:1024B00060D148430190204620300990467FA670A5
:1024C000002E57D0711E0E4254D12130427801782F
:1024D000100208432081069000074BD1204643306C
:1024E000417802780802104306D120465130FDF7AA
:1024F00027FE297C00020843E18F0591002939D08D
:10250000019A8A180699090951180491884231D311
:10251000401A3146FDF7ECFD00282BD04549012635
:10252000884200D302264449884200D30326871CF0
:10253000A761049903984018A06205990398401870
:102540002062032E18D00699002900E012E011D075
:10255000019940186062022E1BD078003818F907E4
:102560004008C90F4018FF30FF3001300799400A7A
:10257000814210D20D2038E706980028FAD1204673
:102580005D30FDF7DDFD297F000208436062B80081
:10259000E9E77800E7E700200027C043E760206113
:1025A000032E3AD16771298C039801230A186261BE
:1025B00021466078303100F025FA00282DD1E51D44
:1025C000FF35FA35E88D1D49884226D12046313045
:1025D000FDF7B6FD09990002097C084318498842B5
:1025E0001BD118482018FDF7ABFD297D00020843D8
:1025F0001549884211D1134808302018FDF7A0FD75
:10260000297F00020843E0600E48001D2018FDF7F6
:1026100097FD297E00020843206105492670091FA5
:102620000888401C0880E080E7622771FBE6000014
:10263000EC000020F60F0000F6FF000055AA000095
:102640005252614115020000727241618269891E15
:10265000921E8A4201D8002070478278806A4A43DD
:1026600010187047F8B50F00064605D000F009FCB9
:10267000022809D20120F8BDF468002C02D0B0690C
:10268000A04205D8012403E0B1698142F3D83C4659
:102690002546B0696D1CA84202D80225022C0BD336
:1026A0002946304600F0EDFB002807D0411CE2D05F
:1026B0000128E0D0A542ECD10020F8BD104A2946FF
:1026C000304600F09BFC002808D1002F0BD02A4692
:1026D0003946304600F092FC002804D001280BD087
:1026E00001252846F8BDF5603069411CF9D0401E2F
:1026F000306101207071F4E70025ED43F1E700003F
:10270000FFFFFF0FF3B581B002990C6800E0641C75
:1027100021782F29FBD05C29F9D085690B22202153
:10272000284600F02DFC0020014608228E469446E3
:10273000225C401C202A35D92F2A33D05C2A31D084
:102740002E2A01D0E6450BD36346082B39D12E2A19
:1027500037D1082296460B2289069446090EE7E7F0
:10276000802A2ED223A3164600E05B1C1F78002F80
:1027700002D0B742F9D124E01346413B192B02D8CD
:102780000223194308E01346613B192B04D80123A7
:1027900019433246203AD2B27346EA547246521C6A
:1027A0009646C5E723180298202A036001D8042022
:1027B00000E000207246002A03D02A78E52A02D0E1
:1027C00003E00620FEBD05222A706246082A01D1D8
:1027D0008906090E8A07920F012A01D1102210439F
:1027E0000907890F012901D108210843E872002057
:1027F000FEBD0000222A2B2C3A3B3C3D3E3F5B5D58
:102800007C7F0000F8B50446C0880F46401C0604D3
:10281000360C30D0206900282DD031075DD1401C06
:102820002061E168002922D02068320983785B1E8C
:102830001A4252D100F025FB054601281FD9681C19
:1028400036D020688169A94241D8002F13D0E168B1
:10285000FFF708FF050010D0012D10D0681C27D00D
:102860000021206800F093FB002821D109E02068B6
:102870000089B04231D80420F8BD0720F8BD0220FD
:10288000F8BD2068012252020021303000F078FBB0
:1028900029462068FFF7DAFE21680027C8620FE0AA
:1028A000012101710021206800F071FB002801D096
:1028B0000120F8BD2068C16A491C7F1CFFB2C162BB
:1028C00020688178B942EBD8C16AC91BC162E56052
:1028D00029462068FFF7BAFE2061E6803007C00D68
:1028E00021683030081860610020F8BD70B50446DA
:1028F000002100F02AF80FE02169206800F047FB72
:10290000050020D160690078E52808D0002806D0AD
:1029100001212046FFF776FF0500EDD013E0216985
:10292000206800F034FB05000DD1666920220021EB
:10293000304600F025FB0B223046A16900F018FB61
:10294000206801210171284670BD70B50D46C18017
:1029500081680446012920D0206882698A421CD9F6
:10296000002905D10278032A05D1416A002902D045
:102970008078060117E0E1600189A9420DD9406A1B
:1029800017E0206800F07DFA0146401C07D00229BC
:1029900003D320688069884203D8022070BD0120DB
:1029A00070BDA81B85B2B542EBD2E1602068FFF78D
:1029B0004DFE2909401820612807C00D21683030DC
:1029C00008186061002070BD0020704770B50120BC
:1029D000002540020B00FFF7A5FC05130F0D0D04A9
:1029E000120050CA03E06002FEF724FD641CB442EA
:1029F000F9D905E0106003E07D204001FAE70425E5
:102A0000284670BD10B5144608461A46214600F007
:102A100065FC002010BD0020704710B51446084624
:102A20001A46214600F061FC002010BD10B5044696
:102A300000F0BAF8002801D10021216010BD00008B
:102A4000002801D00B207047054B00221868002891
:102A500000D00270002900D00A7000201960704771
:102A6000EC000020F7B58EB00746D6060020F60E23
:102A700072083860520002A90FA8FFF7A5FC0500F4
:102A80000BA8089004D102A80F9900F099F9054607
:102A9000079C002D02D1002C00D10625F006400F26
:102AA00050D0002D0BD0042D03D102A8FFF71EFF3C
:102AB000054608200643079C002D0AD071E0E07A05
:102AC0001121084201D007256BE0700701D50825C8
:102AD00067E0300745D500F036FAA073010AE173CC
:102AE000010C2174000E60740020E0722077607782
:102AF000A077E077617D227D09021143E27EA37E0B
:102B0000120209041A4311430191A076E076207560
:102B10006075029901200871019900291FD002985F
:102B2000C06A0090029800F0E6FA050039D10198D9
:102B30000299401EC8600099029800F028FA051E0C
:102B40000BD02EE0002D2CD1E07AC10601D5042552
:102B500027E0B10701D5C007B5D1300701D5202046
:102B600006430298C06A3C62F861BE71607D217DB7
:102B700000020843E17EA27E0902000411430843DB
:102B8000386120461D30FDF7DBFA217F0002084343
:102B9000F8600020B860B861029838600298C08878
:102BA000B880284611B0F0BD70B504468188006831
:102BB00000F0F1FB002836D1A179890633D5E1690F
:102BC000206800F0E4F900282DD1256A2021E87A58
:102BD0000843E872207B2877A089000A6877E068BC
:102BE000000CA877E068000EE877207CA876208AA1
:102BF000000AE8762069000C28752069000E6875C7
:102C000000F0A1F9A875010AE975010C2976000EFA
:102C10006876A079DF210840A07121680120087141
:102C2000206800F069FB70BDFFB583B004460091D9
:102C30000698002101601646A188206800F0ABFBD1
:102C4000002803D1A079010602D5022007B0F0BD0B
:102C5000800701D40720F9E7E068802781198142C5
:102C60007ED39FE0A068C1056CD12268410A9378A9
:102C70005B1E19400D062D0E0CD1002815D01046F4
:102C80006169FFF7EFFC00286AD0012828D0411CB9
:102C90006AD060612068A269C16A91420ED10021A8
:102CA00000F075F900285FD108E020690028ECD118
:102CB00000211046FFF7D6FC2061E4E76169206837
:102CC000FFF7C4FC00280BD040190190700A029055
:102CD00029D02A18206881788A4205D8029905E00F
:102CE000A0793843A071B0E7491B0291CBB240787C
:102CF000019A0099FFF791FE002835D120680199CB
:102D0000C26A511A029A91420AD24A02009930309C
:102D100051180122520200F02BF92168002008719D
:102D20000298450232E0E168A068884208D3002199
:102D3000206800F02CF9002816D121680198C8629B
:102D40000198A0612089C1050120C90D4002451AE2
:102D5000B54200D93546A169206800F018F901E0B4
:102D600023E001E0002804D0A0793843A0710120BD
:102D70006CE721892068C905C90D303140182A4601
:102D8000009900F0F5F821680120087100984019B9
:102D90000090A0684019A060069800684119069844
:102DA000761B0160002E00D05CE7E168A0688842D5
:102DB00000D9E060A07920210843A071002045E7F8
:102DC00073B50199044608782F2801D05C2801D1F9
:102DD000491C01910025A56001980078202805D2A2
:102DE00000212046FFF7B1FD65617CBD01A92046A9
:102DF000FFF788FC0028F8D100212046FFF7A5FD49
:102E0000002822D12169206800F0C1F800281CD1D7
:102E100061690A78002A05D0CA7A12070FD40A23FA
:102E2000A26903E0042010E05B1E06D30D7816783B
:102E3000491C521CAD1BF7D001E0002D05D000212C
:102E40002046FFF7DFFC0028DCD0A1690028C97A02
:102E500005D00428C9D14907C7D405207CBD49073E
:102E6000FCD46069C17AC906F7D5417D027D0902AB
:102E70001143C27E0904837E100218430143A160FE
:102E8000B4E7F8B50C460546022902D3A869A0426A
:102E900001D80120F8BD2878012804D0022828D0C4
:102EA00003283FD136E060080619286A710A4118E4
:102EB000284600F06CF8002834D1F005C00D401908
:102EC0002030077C761C286A710A4118284600F0D9
:102ED0005EF8002826D1F005C00D40192030007C96
:102EE00000023843E10701D00009F8BD0005000DDC
:102EF000F8BD286A210A4118284600F048F8002841
:102F000010D12006C00D40193030417802780802F7
:102F10001043F8BD286AE1094118284600F037F847
:102F2000002802D00020C043F8BD6006C00D401943
:102F3000044630343130FDF703F9217800020843AC
:102F400000010009F8BD002070470000FEF70EFAEE
:102F5000034B044A04490548FEF741FEFEE7000022
:102F6000400000207C00002000000020F000002035
:102F700003E00B780370401C491C521EF9D27047C5
:102F8000C9B201E00170401C521EFBD27047F8B577
:102F9000C56A0F460446BD422ED020462179303006
:102FA000009000291BD0607801232A460099FFF782
:102FB00034FD00281DD12071E169206A4018A84223
:102FC0000DD9E67809E0E0690123451960782A46C1
:102FD0000099FFF722FD761EF6B2012EF3D8002FDE
:102FE0000AD0607801233A460099FFF70BFD0028CC
:102FF00001D00120F8BDE7620020F8BDF8B5174602
:103000000D460446022902D3A069A84201D802262F
:1030100009E02078012808D0022840D003284ED0AB
:103020000226012020713046F8BD68084019009042
:10303000216A400A09182046FFF7A9FF0600F0D1CF
:103040000098C005C00D00193030E90705D001789F
:103050000907090F3A01114300E039460170009851
:10306000401C0090012020710098216A400A091834
:103070002046FFF78CFF0600D3D10098C005C00D95
:1030800000193030E90702D03905090E05E0017852
:103090003A0509090901120F11430170C1E7206ABD
:1030A000290A41182046FFF772FF0600B9D1280609
:1030B000C00D001930300770390A4170B1E7206A3D
:1030C000E90941182046FFF762FF0600A9D168060A
:1030D000C00D0019054630353130FDF731F80002DA
:1030E000010F090739432970080A6870080CA87095
:1030F000080EE87095E7F8B50E460746022916D384
:10310000B869B04213D900251DE031463846FFF7B3
:10311000B8FE04001AD0012C09D0601C09D000228E
:1031200031463846FFF76AFF05000FD103E002255C
:103130000CE001250AE03869411C03D0401C3861CD
:10314000012078712646B869B042DED82846F8BD1D
:1031500070B5044600F080F801250E4E2D030022C4
:1031600029463046FDF7D8FB202000F041F8200228
:10317000000E00F03DF82004000E00F039F8E0B237
:1031800000F036F8012229463046FDF7C5FB00F075
:1031900049F870BD00040048F8B5012714460D46F3
:1031A00006463F03002239461048FDF7B5FB0320D1
:1031B00000F01EF82802000E00F01AF82804000E95
:1031C00000F016F8E8B200F013F806E0002000F076
:1031D0000FF8641E3070A4B2761C002CF6D10122C8
:1031E00039460248FDF798FBF8BD0000000400488E
:1031F00070B50B4C054602212046FEF7AFF90128B9
:10320000F9D129462046FEF7E7F901212046FEF7CD
:10321000A5F90128F9D12046FEF7D2F970BD0000CA
:103220000038004070B501240A4D240300222146D5
:103230002846FDF771FB0520FFF7DAFF0020FFF7B6
:10324000D7FFC007FAD1012221462846FDF764FBCB
:1032500070BD00000004004870B50124074D240330
:10326000002221462846FDF757FB0620FFF7C0FF46
:10327000012221462846FDF74FFB70BD000400489F
:10328000F8B514460D460646FFF7E6FF01273F0353
:10329000002239461048FDF73FFB0220FFF7A8FF48
:1032A0002802000EFFF7A4FF2804000EFFF7A0FF7E
:1032B000E8B2FFF79DFF05E03078FFF799FF641E45
:1032C000A4B2761C002CF7D1012239460248FDF742
:1032D00023FBFFF7A7FFF8BD0004004810B5520616
:1032E0004902120CFFF758FF10BD10B552064902F3
:1032F000120CFEF7C9F810BDF8B504460021FFF71F
:1033000046FE050045D1207803283AD1607900288F
:1033100037D000262046012230305202314607467F
:10332000E662FFF72DFE1120400155212018817320
:10333000AA21C173204652212030017441746121B9
:1033400081744122C274FF307223E13003754375EA
:103350008275C175216901760A0A42760A0C827665
:10336000090EC176E16801770A0A42770A0C827772
:10337000090EC1776078012339466269FFF74DFB7A
:103380006671002260781146FFF720FB002800D00C
:1033900001252846F8BD10B5002805D00278002A7E
:1033A00002D0C2888A4201D0092010BD4078FFF7C0
:1033B00032FBC007F9D0032010BD04030904120139
:1033C00000020000004083042057000201020301B4
:1033D0004669726D77617265204C696272617279BB
:1033E000204578616D706C653A20636F6D6D756E08
:1033F00069636174696F6E207769746820616E20FB
:103400004D32355036342053504920464C415348B4
:1034100053544D3332463130782053504920466959
:10342000726D7761726520000000000000000000EE
:10343000000000000000000000000000000000008C
:10344000000000000000000000000000000000007C
:10345000000000000000000000000000000000006C
:10346000000000000000000000000000000000005C
:10347000000000000000000000000000000000004C
:10348000000000000000000000000000000000003C
:10349000000000000000000000000000000000002C
:1034A000000000000000000000000000000000001C
:1034B000000000000000000000000000000000000C
:1034C00000000000000000000000000000000000FC
:1034D000008002021F00000053544D2020202020B5
:1034E0006D6963726F534420466C617368202020BD
:1034F000312E303009022000010104C032090400DD
:103500000002080650050705810240000007050279
:103510000240000000000003008083000000000063
:103520000000000006000000000000004C3500080C
:1035300000000020F00000003E2300083C36000898
:10354000F0000020A81B00004E230008D120000836
:10355000652100087121000899210008C521000893
:10356000AD200008412100081A03000000000000FF
:10357000000000000000000000000000000000004B
:103580000000000000000000000000003F210008D3
:10359000DD200008CD2000083D210008E1200008C2
:1035A000F1150008DD150008F5150008F9150008EB
:1035B000FD1500080F160008ED150008D0340008AE
:1035C0005400002000000000551C00082B1C0008BF
:1035D000911C00080000000000000000171C0008FB
:1035E000211C000800000000491C00080000000029
:1035F00000000000000000000000000000000000CB
:10360000000000000000000000000000711A000827
:10361000C5190008511E0008C11D0008651D0008DD
:1036200095200008AB1D0008C0000020000000002D
:0C3630000000000000000000000000008E
:04000005080000C12E
:00000001FF
