:020000040800F2
:1000000070370020D5000008E50F0008C10C00087B
:1000100000000000000000000000000000000000E0
:10002000000000000000000000000000111D00089A
:100030000000000000000000351100084920000801
:10004000E7000008E7000008E7000008E7000008F4
:10005000E7000008E7000008E7000008E7000008E4
:10006000E7000008E7000008E7000008E7000008D4
:10007000E7000008E7000008E7000008E7000008C4
:10008000E7000008E7000008E7000008E7000008B4
:10009000E7000008E7000008E7000008E7000008A4
:1000A000E7000008E7000008E7000008E700000894
:1000B000E7000008E7000008E7000008112D00082D
:1000C0000348854600F050F80048004715440008F2
:1000D000703700200448804704480047FEE7FEE7E9
:1000E000FEE7FEE7FEE7FEE74D200008C10000083E
:1000F00030B50B46014600202022012409E00D46C0
:10010000D5409D4205D31D469540491B2546954047
:1001100040191546521E002DF1DC30BD70B500248B
:100120002546002801DA01244042002901DA012590
:100130004942FFF7DDFFAC4200D04042002C00D026
:10014000494270BD03460B439B0703D009E008C931
:10015000121F08C0042AFAD203E00B780370401C77
:10016000491C521EF9D27047064C0125064E05E087
:10017000E36807CC2B430C3C98471034B442F7D3C8
:10018000FFF7A2FFA84C0008C84C0008002806D0C2
:100190000649096840221143044A116005E00349F9
:1001A000096840229143014A11607047006C004089
:1001B00010B50121C80600F0CFFF0120400700F074
:1001C00019F80120FFF7E2FF012000F001F810BD4F
:1001D000002806D00649096820221143044A11600C
:1001E00005E00349096820229143014A11607047E4
:1001F000006C004005494968032212079143034AF5
:10020000516011464968014351607047006C0040DD
:100210007CB50026002000907EE1684680880507B6
:100220002D0F002D7ED168468088102108400028BF
:1002300016D1BF480068BF490840BD490860BE4CA0
:10024000207800F013FDA061A169206940182061A9
:10025000BA480068002142682046183890475BE1A0
:10026000B54C7834B248006881B200916846008885
:100270000121C902084000281AD0207800F0E4FCCF
:10028000A061208B82B2A1882046803800F040FF18
:10029000A74800684004400CA64980310840A449A2
:1002A0000860A6480068816820469038884733E196
:1002B000684600880121C90308400028ACD09C484A
:1002C00000684004400C9B49803108409849086010
:1002D000207800F0B9FCA061A069002809D0238B28
:1002E0009AB2A188206900F013FFA1692069401823
:1002F000206192480068002102688F4818389047B2
:100300008B484030006980B2801D8D4A8118E268B8
:100310003E2A11D9E268D202100C227BD206D20EFC
:10032000002A00E026E001D1421E90B282020123A1
:10033000DB031A430A800CE0E268D203100C227B34
:10034000D207D20F002A01D0421C90B28206120CB2
:100350000A80774909687B4A114008460121090350
:100360004840490048408900014380221143704AB7
:100370001160D1E0A8006E494018006881B2009178
:10038000684600880121C903084000285FD0A80002
:100390006749401800684004400C664980310840B5
:1003A000A900634A891808602820684362497831A7
:1003B0004418A07A00280BD1207800F045FC0646AE
:1003C000002E28D0A1883246206900F0A1FE22E04C
:1003D000207800F00BFC01218903084000280BD095
:1003E000207800F00DFC0646002E10D0E188324641
:1003F000206900F08DFE0AE0207800F013FC06462C
:10040000002E04D021893246206900F081FE207838
:10041000002100F049FBA0698019A06120698019C2
:1004200020616069002802D0E068B04207D92178D5
:1004300042480068026840481838904707E0A08AA0
:1004400083B221783C481838226900F0E7F9684601
:1004500000888021084000285ED028206843364963
:100460004418A80032494018006832490840A900E1
:100470002F4A89180860A07A00280DD1207800F052
:10048000F5FBA061A06900282CD0238B9AB2A1882B
:10049000206902F0D7FC25E0207800F0A7FB40217E
:1004A000084000280DD0207800F0AAFBA061A069C8
:1004B000002813D0238B9AB2E188206902F0C2FC95
:1004C0000CE0207800F0AEFBA061A069002805D008
:1004D000238B9AB22189206902F0B4FC2078012193
:1004E00000F0E2FA207800F0C1FBA061A169206968
:1004F000401820616069002807D121780F48006802
:1005000042680D481838904706E021780A481838A4
:100510006369226900F02AFA05484030406880B2D9
:1005200001900121C9030840002800D075E67CBD78
:10053000005C00400F8F00001C010020E400002040
:10054000006000408FBF000081000A4A89180968D6
:100550001214114000290BD08100064A891809683D
:10056000054A1140054A11438200024BD21811601E
:1005700070470000005C00408F8F000080C00000CA
:1005800081000A4A891809684022114000290BD0CD
:100590008100064A89180968054A1140054A114335
:1005A0008200024BD218116070470000005C0040CE
:1005B0008F8F0000C0800000044989690122D203A6
:1005C0001143024A9161012181707047405C0040F3
:1005D00070B506460D4680202840802807D1680661
:1005E000400E2821484331461831441806E0680679
:1005F000400E28214843314690314418A07A002803
:1006000012D16078002807D02078FFF7B9FF207852
:10061000002101F0A5FC2DE02078FFF795FF207860
:10062000002101F059FC25E06078002811D12078E4
:10063000FFF78AFF2078FFF7A3FF207801F05AFD2B
:100640002078002101F048FC2078002101F088FC8E
:1006500010E02078FFF778FF2078FFF791FF2078EF
:1006600001F034FD2078002101F07AFC207800218F
:1006700001F032FC002070BD70B506460D468020AA
:100680002840802807D16806400E2821484331467B
:100690001831441804E0282068433146903144184A
:1006A0006078002809D02078FFF76AFF2078302191
:1006B00001F056FC0020A07009E02078FFF744FF0D
:1006C00020780321090301F007FC0020A07000201E
:1006D00070BDFFB581B006460D4617468020284004
:1006E000802809D16806400E282148433146183138
:1006F00044180120607008E06806400E2821484335
:1007000031469031441800206070E7600498E07032
:100710006806400E20702078002802D16062E061F7
:100720002062002020616061A061A070E078002854
:1007300006D0012815D0022808D0032817D10AE0D6
:1007400020780121490201F02DFC10E020780021E1
:1007500001F028FC0BE020780321490201F022FC83
:1007600005E020780121890201F01CFC00BF00BFD8
:10077000A07A002820D1607800280BD0A1882078AA
:1007800001F0D0FB2078FFF7FBFE2078202101F05C
:10079000E7FB40E0A188207801F064FBA28991B2D8
:1007A000207801F071FB2078FFF7CEFE207803213E
:1007B000090301F091FB2EE0207801F03DFB228936
:1007C000E188207801F0B6FA6078002812D120780C
:1007D000FFF7BAFE2078FFF7D3FE207801F08AFCFD
:1007E00020780321090301F077FB2078002101F034
:1007F000B7FB10E02078FFF7A7FE2078FFF7C0FED8
:10080000207801F063FC2078002101F0A9FB20781A
:10081000002101F061FB002005B0F0BDFFB581B003
:1008200005460E461746002000907006400E28210F
:10083000484329469031441827610498606100209C
:10084000A061E1686069884206D9E068009060694B
:100850000099401A606103E06069009000206061C7
:10086000A07A002805D1009A91B2207801F00CFB03
:1008700005E0009B9AB26178207801F077FA207841
:100880000321090301F028FB002005B0F0BD0000A2
:1008900030B502460020117100BF10E003069B0D29
:1008A0000B4C1B191B680B4C23400B4C2343C4B24D
:1008B00023430406A40D064D64192360401C03283D
:1008C000ECD380230B43024C4034E36030BD000086
:1008D000005C00408F8F00008080000070B50646ED
:1008E0000D4680202840802807D16806400E282128
:1008F000484331461831441804E028206843314603
:10090000903144182078002819D121788900154A9F
:1009100089180968144A1140084601210903484012
:1009200010214840C90201438022114322789200DD
:100930000C4BD21811600120A070002070BD6078AF
:10094000002806D00120A0702078102101F008FBBB
:1009500006E00120A07020780121090301F0BCFA13
:100960000020EBE7005C0040BFBF0000FFB583B094
:1009700006460D461746002002906806400E2821C4
:1009800048433146183144186806400E20702761EC
:10099000069860610020A061E1686069884206D91C
:1009A000E068029060690299401A606103E0606942
:1009B000029000206061A07A00280BD1029B9AB2BD
:1009C000A188206902F03EFA029A91B2207801F0E3
:1009D000B9FA1EE000200190029B9AB2617820785B
:1009E00001F0C4F9207800F001F940210840002806
:1009F00002D02089019001E0E088019002998AB23A
:100A00002069019902F01EFA6178207800F04CF814
:100A100000BF2078302101F0A3FA002007B0F0BD1C
:100A200010B504460120A07000202071A0600120B4
:100A3000E06001F079F9002001F076F9002001F082
:100A4000C3FA002001F066F9BF20000203490860E4
:100A5000098888B201F068F910BD0000C4000020C8
:100A600070B505460C4680202040802807D16006DE
:100A7000400E282670432E461836811906E060067F
:100A8000400E282670432E4690368119002A03D145
:100A9000002088728B8004E001208872CB80180CC3
:100AA0000881002070BD000010B500290CD1820023
:100AB0000D4BD21812680D4B1A400D4B1A43830090
:100AC000094C1B191A600DE001290BD18200064B5D
:100AD000D2181268054B1A40064B1A438300024C89
:100AE0001B191A6010BD0000005C00408F8F0000D1
:100AF000C080000080C00000F0B50A46002100233D
:100B0000002400BF3DE001258D402B4615681D40A7
:100B10002C469C4234D11579012D02D01579022D35
:100B200016D185684F000326BE40B54385605579D0
:100B30004E00B540866835438560858801268E4025
:100B4000B5438580858896798E40B6B235438580D9
:100B500005684F000326BE40B543056015794E0079
:100B6000B540066835430560C5684F000326BE40A2
:100B7000B543C560D5794E00B540C6683543C560FC
:100B8000491C1029BFD3F0BDF0B5002300244D0748
:100B9000EE0E1546B5402B46CD10AE00054620356D
:100BA000AD594E07F70E0F26BE40B543CE10B60026
:100BB00007462037BD51CD10AE003D46AD591D430F
:100BC0002C46CD10AD003E467451F0BD02460020CB
:100BD000138A0B40002B01D0012000E00020704759
:100BE000002A01D0816100E001857047014688003C
:100BF000024A8018006880B270470000005C004024
:100C000001460648006980B2CA008018801C044A68
:100C1000801800888005800D70470000405C00400F
:100C20000060004001460648006980B2CA00801892
:100C3000801D044A801800888005800D70470000E0
:100C4000405C00400060004001460648006980B2F8
:100C5000CA008018801D044A801800888005800D15
:100C600070470000405C00400060004001460648BC
:100C7000006980B2CA008018801C044A801800886D
:100C80008005800D70470000405C0040006000401F
:100C900070B50948C46A056B466BA419002C0AD0CC
:100CA00008220649204600F00DF8042203491031BD
:100CB000284600F007F870BD80F7FF1F22000020D3
:100CC00000BFFEE730B50B46002100BF12E0040F65
:100CD0000A2C04D2040F30344D005C5503E0040F9D
:100CE00037344D005C55000100254C00641C1D5537
:100CF0004C1CE1B29142EADB30BD000010B5044665
:100D00000F48007B00280BD10D488068002807D0D1
:100D10000C480078002803D102212046FFF7DEFDB1
:100D200081212046FFF7DAFD06480078022805D128
:100D30001F23034A02212046FFF770FD10BD00006B
:100D40001C1200208300002010B504462B48406888
:100D50002B4948602948806888600221204601F0BC
:100D6000C9FB1F2810D125480068264988420BD1AD
:100D70002248407B012807DC2048807B012803DBD8
:100D80001E48807B10280CDD1C49487B2022052151
:100D900000F098FD02201C4908702046FFF7AEFFC6
:100DA0002BE01648417B02460F32204600F002FB42
:100DB000002803DA2046FFF7A1FF1EE01348007861
:100DC00002281AD011480078012816D00F48007860
:100DD000032812D00E480088002806DD0C4802883F
:100DE0000C49204600F0DAF807E00948008800289E
:100DF00003D10021204600F0B1F810BD1C120020E4
:100E00003C12002055534243830000208200002002
:100E1000800000201C02002070B505460C460C48DE
:100E20000078022807D181212846FFF757FD0020CE
:100E3000074908700BE080202040802807D1044833
:100E40000078012803D00121284600F087F870BD02
:100E50008300002070B504460D4610480078022833
:100E600004D0032811D0042814D10DE00C48417B94
:100E700002460F32204600F09DFA002803DA0121D5
:100E8000204600F06BF806E000BF0021204600F08D
:100E900065F800E000BF00BF70BD000082000020C8
:100EA0001C12002070B504460D460E48007800283C
:100EB00002D0012812D103E02046FFF745FF0EE0E3
:100EC0000948417B02460F32204600F073FA0028A1
:100ED00003DA0121204600F041F800E000BF00BF26
:100EE00070BD0000820000201C1200200021014A79
:100EF000117070478200002010B504460020084998
:100F00000870084908700848006801680020884790
:100F10001F23064A02212046FFF780FC10BD000077
:100F200082000020830000207C0000201C12002092
:100F300010B50446002006490870012005490870D4
:100F40001F23054A02212046FFF768FC10BD000060
:100F500082000020830000201C12002070B505468E
:100F60000C460A480A4908600846047300200949EB
:100F700008700D23064A81212846FFF7F7FC1F233E
:100F8000054A02212846FFF749FC70BD55534253DC
:100F90003C120020820000201C12002070B5064682
:100FA0000D4614460C488068A04202D20A48806868
:100FB00000E0204684B209488068001B0749886029
:100FC0000020087304200649087023462A46812120
:100FD0003046FFF7CBFC70BD1C1200203C120020F5
:100FE000820000207047000000218278002A27D06C
:100FF000184A03231B02D21803789B109B00D15878
:1010000002789207D30EFF229A400B46934319466B
:1010100042789207120E03789B07DB0E9A40114329
:101020000C4A03231B02D21803789B109B00D1505B
:101030000278D306DB0E01229A40064B1A6007E0C5
:101040000278D306DB0E01229A40024B80331A60ED
:101050007047000000E100E000241F49002002F07A
:101060001DFD1E49087001221DA1204802F032FD1D
:101070001A49087002221EA1204802F02BFD1749D0
:1010800008701F481D49886000BF1AE01D4B2A22C6
:101090001D49164802F007FE104908701348806881
:1010A000801C12498860194B2A221749134802F004
:1010B00036FF0A4908701148806840300F4988603F
:1010C000641C0A2CE2DB094802F0D6FC0B4802F053
:1010D000D3FC00BFFEE70000C4120020F80000208F
:1010E000303A64656D6F2E74787400001C23002004
:1010F000303A3270746D702E70646600F4220020F5
:1011000004860000FC000020442300200001002091
:1011100070B5561C7510064E8C192B4605E02688B6
:101120000680A41C401C401C5B1E002BF7D170BD28
:101130000060004070470000002905D0054A526950
:101140000243044B5A6104E0024A52698243014B54
:101150005A61704700100240002905D0054AD26943
:101160000243044BDA6104E0024AD2698243014B34
:10117000DA61704700100240002905D0054A126963
:101180000243044B1A6104E0024A12698243014B94
:101190001A61704700100240002905D0054AD26844
:1011A0000243044BDA6004E0024AD2688243014BF6
:1011B000DA607047001002400549096B80229143B4
:1011C000034A11631146096B014311637047000024
:1011D0000010024030B50546072D01D0314805709A
:1011E00030480078030001F043FE0805131C222E4E
:1011F0003B5556542C480068002805D100F058F89B
:1012000006202849087002E005202649087046E0BB
:1012100000F04EF80420234908700120224908609C
:101220003DE002201F4948700320087037E01D4848
:101230004078401E1B49487008464078002801D17C
:10124000042008702BE01948006884B21020044381
:10125000164804600520134908700A2048701EE0F3
:1012600010484078401E0F494870084640780028D2
:101270000ED10E48006884B21021204688430446EF
:101280000A480460062007490870002006490860E3
:1012900005E000BF00BF06200249087000BF00BF84
:1012A00030BD00003C00002040000020405C0040B9
:1012B0000649096888B20422014691430846034959
:1012C0000860BF210902014A11607047405C00407C
:1012D00070B506460C4615466019074909688842EC
:1012E00007D921220521304600F0ECFA0020C04346
:1012F00070BD0020FCE70000B400002030B50446BB
:101300000A465078C007C00F002802D00D4B0721B5
:101310000BE00D480068C569242060432B1818793C
:10132000411D1079884200DC11790848018004E0F1
:10133000481E81B2585C064D68540029F8D100203F
:1013400030BD0000904C00087C0000208000002090
:101350001C02002010B502460B46082106480180F9
:1013600005E0481E81B20548405C054C60540029E8
:10137000F7D1002010BD0000800000209F4C000825
:101380001C02002010B502460B46082106480180C9
:1013900005E0481E81B20548405C054C60540029B8
:1013A000F7D1002010BD000080000020974C0008FD
:1013B0001C02002070B505460E46144632480560F2
:1013C000207823283FD00EDC1A2832D006DC0028F3
:1013D00016D0032819D012284ED11BE01B281ED08E
:1013E0001E2849D120E02A283CD004DC25282FD013
:1013F000282841D131E02F2839D05A283CD11DE08E
:101400002146304600F084FA70BD2146304600F097
:101410000DFAF9E721463046FFF770FFF4E7214661
:10142000304600F06DFAEFE72146304600F068FAEA
:10143000EAE721463046FFF7A5FFE5E721463046BB
:10144000FFF788FFE0E72146304600F0A7F9DBE729
:101450002146304600F058F9D6E72146304600F0E4
:10146000D9F8D1E72146304600F0A4FACCE721466E
:10147000304600F077FAC7E720220521304600F019
:1014800021FA0020C043BFE7C0000020F8B50546A0
:101490002448006801210903884202D221480068DB
:1014A00001E00120000304461F4801682046FEF7C2
:1014B0001FFE86B21C4801681C480068FEF718FE33
:1014C00000901B480068334607691A492846009A6D
:1014D000B847002807DA11220421284600F0F2F963
:1014E0000020C043F8BD2346124A812112480068FB
:1014F000FFF73CFA0D48006800190C4908600948DC
:101500000068001B074908600C488068001B0B49F5
:10151000886004480068002802D103200849087048
:101520000020DFE7BC000020B0000020B800002051
:101530007C0000201C020020C00000203C12002083
:1015400082000020F8B505462B48006801210903F8
:10155000884202D22848006801E0012000030446C6
:10156000264801682046FEF7C3FD86B2234801687D
:1015700023480068FEF7BCFD00902248006833460F
:10158000476921492846009AB847002807DA03220C
:101590000421284600F096F90020C043F8BD184801
:1015A000006800191649086013480068001B1249BA
:1015B000086016488068001B144988600E4800685F
:1015C000002805D1002112480068FFF7C7FC11E090
:1015D0000948006801210903884202D206480068D0
:1015E00001E00120000383B2074A02210848006895
:1015F000FFF714F90020D1E7BC000020B000002064
:10160000B80000207C0000201C0200203C120020BA
:10161000C000002070B505460C463448007800280C
:101620005BD13348007B80210840802808D03049B6
:10163000487B2022052100F045F90020C04370BD01
:101640002C480068816828468847002807D03A223D
:101650000221284600F036F90020C043EFE7A078C9
:101660000006E178090408432179090208436179F9
:10167000084321490860E0790002217A08431F49A4
:1016800008600846008882B21B4801682846FFF7B8
:101690001FFE002802DA0020C043D0E702201349D1
:1016A00008701548006816490968484312490860DF
:1016B00012480068124909684843104908600C48FC
:1016C00080680968884208D00949487B20220521A2
:1016D00000F0F8F80020C043B1E7012000030949F9
:1016E00008802846FFF7D2FEA9E70000820000200C
:1016F0001C1200207C000020B8000020BC0000204C
:10170000B00000208000002070B504460D461E4841
:1017100000681E4A1E49436820469847002807D0A3
:101720003A220221204600F0CDF80020C04370BDCF
:1017300017480068401E000E1649087014480068DB
:10174000401E0002000E487011480088401E000430
:10175000000E88700E480078401EC8700B48006864
:10176000000E0871094800680002000E4871074821
:1017700000880004000E887104480078C8710820B1
:10178000054908800020D2E77C000020B00000203E
:10179000B40000201C020020800000207CB505461B
:1017A0000E46002404E000201D490855601C84B248
:1017B0000C2CF8DB1B48006801AA694643682846E0
:1017C0009847002807D03A220221284600F07AF8EC
:1017D0000020C0437CBD08201149C8700098401EFD
:1017E000000E08710098401E0002000E487100981B
:1017F000401E0004000E88710098401EC87102202F
:10180000087201980002000E487201980004000E50
:1018100088720198C8720C20034908800020D9E71B
:101820001C0200207C0000208000002010B5034630
:10183000002204E000201E4CA054501CC2B2122A08
:10184000F8DB70201A4C20700C20E07119480078E9
:10185000194C2478A04221D016480078C000174CBB
:10186000205C134CA07013480078C000134C001982
:1018700040790F4C20730F480078C0000F4C0019BE
:1018800000790B4C60730B480078401C094C2070A9
:1018900020460078042801D1002020701220084C36
:1018A00020800879122801DC08792080002010BDF2
:1018B0001C020020AC000020AD0000204C120020D3
:1018C0008000002030B50C4B1B78DB000B4CE15442
:1018D0001302094C2478E400084D64196360064B38
:1018E0001B785B1C044C237023461B78042B01D10E
:1018F0000023237030BD0000AD0000204C120020FA
:1019000002460020014B1880704700008000002034
:1019100070B504460D4610488068002808D00E496E
:10192000487B20220521FFF7CDFF0020C04370BD7A
:101930000A480068816820468847002807D03A2274
:1019400002212046FFF7BEFF0020C043EFE7002042
:101950000349088000BFEAE71C1200207C00002039
:101960008000002070B505460C46607802210840D2
:10197000022807D1242205212846FFF7A3FF0020D3
:10198000C04370BD0848008882B2084801682846F4
:10199000FFF79EFC002802DA0020C043F1E7002098
:1019A0000349088000BFECE7BC000020B80000201D
:1019B0008000002070B505460C4644480078002899
:1019C0007ED14348007B80210840802808D14049CF
:1019D000487B20220521FFF775FF0020C04370BD22
:1019E0003C480068816828468847002807D03A228A
:1019F00002212846FFF766FF0020C043EFE7354885
:101A00000068C16828468847002807D0272202219D
:101A10002846FFF757FF0020C043E0E7A078000604
:101A2000E1780904084321790902084361790843F0
:101A300029490860E0790002217A084327490860B3
:101A40000846008882B2244801682846FFF740FC17
:101A5000002802DA0020C043C1E71F48006820497F
:101A6000096848431C4908601C4800681C4909680B
:101A700048431A490860164880680968884208D0B7
:101A80001349487B20220521FFF71CFF0020C0439B
:101A9000A5E701200D4908701048006801210903DD
:101AA000884203D20D48006802E009E001200003EB
:101AB00083B20C4A02210C480068FEF7AFFE03E037
:101AC0002846FFF73FFD8AE7002088E782000020D4
:101AD0001C1200207C000020B8000020BC00002068
:101AE000B00000201C020020C0000020002904D00B
:101AF000028840231A43028003E00288014B1A4007
:101B000002807047BFFF000000B587B00121880345
:101B1000FFF722FB01218804FFF70EFB00220321BF
:101B20002F48FFF731F800220F212D48FFF72CF83E
:101B300000220E212A48FFF727F802216846017685
:101B4000002181760221C1760321417601204003E4
:101B5000059005A92248FEF7CFFF0120C00305909C
:101B600005A91F48FEF7C8FF01208003059005A9BD
:101B70001B48FEF7C1FF0121684601760803059066
:101B800005A91748FEF7B8FF012211031448FFF713
:101B900027F8144800F028F8002168460180FF214A
:101BA000053141800721090281800221C180012184
:101BB00001814902418100218181C1810721018286
:101BC0006946084800F038F801210903054800F08B
:101BD00065F801210348FFF789FF07B000BD000049
:101BE000000400480038004010B504460B48844209
:101BF00008D101218014FFF7CFFA0021A014FFF7CC
:101C0000CBFA0AE00648844207D101210014FFF70D
:101C1000B3FA00212014FFF7AFFA10BD00300140E5
:101C2000003800400246002013890B40002B01D0F1
:101C3000012000E00020704710B500220288C12377
:101C40009B011A400B88CC892343CC8823430C8901
:101C500023434C8923438C8923431A43028082887F
:101C6000084B1A408B881A4382800B8A03820288B1
:101C7000054B1A404B881A430280838B034C234048
:101C8000838310BDFFF00000FBFF0000FFF70000A2
:101C9000014600220A460C32107870478288034BB6
:101CA0001A40828082880A4382807047FFEF0000DA
:101CB000002202460C3211707047034601200003D7
:101CC0001060C01008600020704700207047014677
:101CD00000207047014600207047014600207047F1
:101CE000F8B507460C4615461E463246294620469C
:101CF00002F046FE0020F8BDF8B507460C46154632
:101D00001E4632462946204602F046FE0020F8BD17
:101D10007047000002490140024A1161704700000B
:101D2000F8FF0000405C0040014908607047000077
:101D3000405C004030B54B105B000A4C2469A4B2F3
:101D4000C5006419084D6419238053105C00054BCD
:101D50001B699BB2C5005B191B1D034D5B191C80E1
:101D600030BD0000405C00400060004070B503469C
:101D7000002921D12E48006980B2DD004019801C65
:101D80002C4D44193E2A0CDD5011D506ED0E002DC8
:101D900001D1451EA8B285020126F60335432580F0
:101DA00009E05010D507ED0F002D01D0451CA8B259
:101DB00085062D0C25800AE0012908D11C48006900
:101DC00080B2DC000019801C1A4C00190280002926
:101DD00021D11748006980B2DD004019801D154DE2
:101DE00044193E2A0CDD5011D506ED0E002D01D10F
:101DF000451EA8B285020126F6033543258009E079
:101E00005010D507ED0F002D01D0451CA8B2850656
:101E10002D0C25800AE0012908D10548006980B20F
:101E2000DC000019801D034C0019028070BD000009
:101E3000405C0040006000408100074A8918096842
:101E400092151143054A1140054A11438200024B85
:101E5000D218116070470000005C00408F8F0000B6
:101E60008080000010B54A105300054A126992B2F2
:101E7000C4001219121D034C1219138010BD00006A
:101E8000405C00400060004030B5024610480069E8
:101E900080B2D4000019801D0E4C03193E290CDDC0
:101EA0004811CC06E40E002C01D1441EA0B28402DD
:101EB0000125ED032C431C8009E04810CC07E40FFA
:101EC000002C01D0441CA0B28406240C1C8030BD20
:101ED000405C00400060004030B583000F4C1B198F
:101EE0001B680F4C23401A4601231B030B40002B99
:101EF00002D001231B035A4001235B030B40002B3C
:101F000002D001235B035A400123DB0313438024E7
:101F100023438400014D6419236030BD005C004000
:101F20008FBF000010B54A105200044B1B699BB2D2
:101F3000C4001B19024C1B191A8010BD405C0040E4
:101F400000600040044A126992B2C300D218921C89
:101F5000024BD21811807047405C00400060004086
:101F600030B583000D4C1B191B680D4C23401A46DD
:101F700010230B40002B01D010235A4020230B408C
:101F8000002B01D020235A400123DB03134380247C
:101F900023438400014D6419236030BD005C004080
:101FA000BF8F000010B58200054BD2181268054B98
:101FB0001A400A438300024C1B191A6010BD00002E
:101FC000005C00408F8900000149486070470000B4
:101FD000405C0040112012490860124840681149D5
:101FE00048600846406848600846406B0121090483
:101FF00008430C49486300BF0A48406B012149046B
:1020000008400028F8D0074840688008800005494B
:102010004860084640680321084302494860704709
:1020200000200240001002400649096888B20821D9
:10203000084304490860096888B20421084301493B
:1020400008607047405C00407047000010B51B48B6
:10205000006801210843194908600846406818498A
:102060000840164948600846006816490840134968
:102070000860084600680121890488430F49086008
:10208000084640687F21C90388430C4948600846D8
:10209000C06A00090001C8620846006BFF21543184
:1020A0008843064908630846406B074908400349CE
:1020B000486300208860FFF78DFF10BD00100240CC
:1020C0000CB8FF80FFFFF6FEFEFFFEFF8100064A10
:1020D00089180968054A1140054A11438200024BDC
:1020E000D218116070470000005C00408F8F000024
:1020F00080C000008100064A89180968054A11401D
:10210000054A11438200024BD2181160704700004B
:10211000005C00408F8F0000C080000070B5044656
:102120000D46FF2009300059294642682046904755
:10213000002070BD70B504460D46A078022802D07C
:10214000032811D100E000BF688801280BD10020CE
:10215000A060FF2009300059294682682046904738
:10216000204600F048F804E02946204600F01DF81B
:1021700000BF00BF70BDF8B506460C4615460027E7
:102180002B46224600213046FEF748FB3846F8BD74
:10219000F8B506460C46154600272B462246002178
:1021A0003046FEF7E3FB3846F8BD70B504460D46F1
:1021B00000212046FEF792FB70BD70B50446002555
:1021C0000520607000231A4619462046FEF726FBBC
:1021D000284670BDF8B504460E4615460027A5638F
:1021E0006563022060702B46324600212046FEF7D0
:1021F000BDFB3846F8BD70B504460025042060706C
:1022000000231A4619462046FEF7B0FB284670BD4B
:1022100070B505460E46002E4CD12C461834687811
:10222000022837D1E168E06988420AD9E168E069AB
:10223000401AE061A08B82B228462169FFF7A8FF0F
:1022400048E0E168206AFDF753FF00290FD1E168FB
:10225000206A88420BD3616A206A884207D2002232
:1022600011462846FFF794FF0020606232E0FF200D
:1022700009304059C068002808D0A878032805D143
:10228000FF2009304059C168284688472846FFF793
:1022900094FF1FE0687804281CD10F4800680028CC
:1022A00018D00D4801782846FEF7F2FA00200A49B6
:1022B00008600FE0FF20093040594069002809D02C
:1022C000A878032806D1FF200930405931464269D9
:1022D00028469047002070BDE800002070B50546F4
:1022E0000E46002E2CD12C4690346878032837D126
:1022F000E168E069884210D9E168E069401AE0616C
:10230000E368E069984201D2E06900E0E06882B2E7
:1023100028462169FFF72FFF22E0FF2009304059AE
:102320000069002808D0A878032805D1FF200930CB
:1023300040590169284688472846FFF75CFF0FE0AF
:10234000FF20093040598069002809D0A878032867
:1023500006D1FF200930405931468269284690470E
:10236000002070BD01460020704738B504460D4678
:1023700000200090E888012804D029462046FFF775
:1023800014FF17E0A078022802D003280CD105E042
:10239000012269462046FFF71DFF0AE0012221467F
:1023A0002046FFF717FF04E029462046FFF7FDFE11
:1023B00000BF00BF38BDF8B504460E467088001255
:1023C000030000F055FD086E05131F6E6E64696E04
:1023D000207BFF21113109590A686946904705465B
:1023E000F088402801D1082000905FE0207BFF2189
:1023F000093109590A6A694690470546FF21153196
:102400000D5153E0B078030000F032FD06040D16C4
:102410001F28313A207BFF21113109594A6869464A
:102420009047054631E0207BFF21113109598A6828
:1024300069469047054628E0207BFF211131095964
:10244000CA686946904705461FE0207BFF2111318D
:1024500009590A6969469047054616E0207BFF2125
:10246000113109594A696946904705460DE0207BBC
:10247000FF21113109598A6969469047054604E0F0
:1024800031462046FFF791FEF8BD00BF0EE0314611
:102490002046FFF78AFEF7E731462046FFF785FE24
:1024A000F2E731462046FFF780FEEDE700BF6846C1
:1024B0000088002812D0F08800280FD0F0886946E4
:1024C0000988884202DD6846008800E0F0880090B4
:1024D00069460A8829462046FFF77CFE00BFD3E7FD
:1024E0000146002002E0421CD0B2491C0A78002AB2
:1024F000F9D1704702462820484313469033C0184C
:10250000008B80B2704738B504460D46002000901D
:10251000A078022802D0032810D100E000BF0120DB
:102520000090A068002803D0022100980843009082
:10253000022269462046FFF74DFE04E02946204668
:10254000FFF733FE00BF00BF38BDF8B504460D46A7
:1025500017460026002C1ED02046FFF7C1FF400082
:10256000801C38803A783046711CCEB22A5403223F
:102570003046711CCEB22A540AE022783046711CD3
:10258000CEB22A54641C00223046711CCEB22A54AA
:1025900020780028F1D1F8BDF8B504460D4616465E
:1025A0001F46204600F0A8FB2046FFF7DBFEFF2079
:1025B00009300651001D0751001D0551FEF768FB4B
:1025C0002046FEF72DFAFF210D3109590868804792
:1025D000204600F085FB2046FDF7EEFFF8BD70B504
:1025E00004460D4629462046FEF734FC002070BD07
:1025F00070B504460D4629462046FEF753FC0020E0
:1026000070BD70B504460D4681212046FDF7E0FF00
:1026100002212046FDF7DCFF2046FEF767FC002084
:1026200070BD00000246202008800148704700006D
:10263000704C000870B504460D4698230022812195
:102640002046FEF70DFAD823002202212046FEF78D
:1026500007FA0223402281212046FEF73AF802239E
:10266000402219462046FEF734F82046FEF744FC87
:10267000002070BD70B505460C46207860210840EA
:1026800000284CD0202863D16078FE2802D0FF2893
:102690003DD126E0608800281CD1E088012819D1AE
:1026A000207880210840802814D12B490968886946
:1026B00080472A49087008460078002804DD012276
:1026C0002846FFF787FD0BE021462846FFF76DFD02
:1026D000022070BD21462846FFF767FD0220F8E77B
:1026E0001BE0608800280BD1E088002808D1207802
:1026F00080210840802803D02846FEF719FC05E019
:1027000021462846FFF751FD0220E2E705E0214679
:102710002846FFF74AFD0220DBE700BF19E060789A
:1027200001280ED00A2802D00B280FD105E0012283
:102730000B492846FFF74EFD08E0A07808490870CD
:1027400004E021792846FEF767FB00BF00BF00E0E8
:1027500000BF00BF0020BCE77C000020A8000020D4
:10276000A9000020027C0A70427C4A70837CC27CF3
:1027700012029A184A80037D427D12029A188A80BA
:10278000837DC27D12029A18CA80CB88C36301225E
:102790004270704710B504461823002211462046A7
:1027A000FEF75EF95823002280212046FEF758F9F3
:1027B0000023402219462046FDF78BFF00234022CC
:1027C00080212046FDF785FF0120A070207BFF229D
:1027D0000D32125951688847002010BD10B50446CB
:1027E000FF210D31095908698047E078A070002069
:1027F00010BD10B50446FF2009300059C0690028FB
:1028000005D0FF2009300059C169204688470020C3
:1028100010BD000070B504460D46A88800281BD1E5
:10282000E888002818D1A8784606760EA0780328F4
:1028300004D129462046FFF7B8FC11E0267109486B
:1028400006602046FFF7D7FC002E02D00220A070C1
:1028500006E00120A07003E029462046FFF7A5FC12
:1028600070BD0000E800002070B504460D46FF2052
:10287000093000592946026820469047FF210D3152
:10288000095988688047002070BD000070B5044673
:102890000D46A8782C49087008460078012804DD08
:1028A00029462046FFF781FC4CE0A078022802D0A0
:1028B000032841D115E02448007800280DD0224893
:1028C000007820700320A0701F4801782046FFF791
:1028D000CBFF2046FFF78FFC02E02046FFF78BFC82
:1028E0002FE01948007800280DD10220A07016486A
:1028F00000782070144801782046FFF70FFC20462E
:10290000FFF779FC17E020780F49097888420FD04B
:1029100021782046FFF702FC0B48007820700A4817
:1029200001782046FFF7A0FF2046FFF764FC02E095
:102930002046FFF760FC04E029462046FFF735FCFF
:1029400000BF00BF70BD0000EC00002070B5044661
:102950000D46688801280AD1A060FF20093000597F
:1029600029468268204690472046FFF744FC70BD08
:102970001CB5044669462046FFF7F4FE6846007819
:10298000C006C00E002804D0012807D002280FD1AD
:1029900009E06946204600F017F812E06946204633
:1029A00000F0F7F80DE06946204600F046F808E030
:1029B000684600788022104001462046FDF78EFFD1
:1029C00000BF00BF00201CBD70B505460C460026A8
:1029D0006078030000F04CFA0A1A24291F290B061C
:1029E0002915102921462846FFF7E5FC22E021465B
:1029F0002846FFF70FFF1DE021462846FFF746FF58
:102A000018E021462846FFF7B0FC13E0214628468F
:102A1000FFF779FD0EE021462846FFF797FF09E012
:102A200021462846FFF786FB04E021462846FFF7AB
:102A3000BCFB00BF00BF304670BDF8B505460E4672
:102A40000020009000273479707800285BD001289E
:102A50002DD0032877D1A878022802D003281FD1CF
:102A600008E0002C05D0802C03D021462846FDF735
:102A700035FF1AE07088002807D1002C05D0802C83
:102A800003D021462846FDF729FFFF200930405991
:102A900031468268284690472846FFF7ACFB04E0A1
:102AA00031462846FFF781FB00BF00BF6EE0A878E3
:102AB000022802D003281FD108E0002C05D0802C6A
:102AC00003D021462846FDF709FF1AE07088002848
:102AD00007D1002C05D0802C03D021462846FDF7D5
:102AE000CBFDFF2009304059314682682846904787
:102AF0002846FFF780FB04E031462846FFF755FBE8
:102B000000BF00BF42E0A878022802D0032835D1D8
:102B100008E0002C05D0802C03D021462846FDF784
:102B2000DDFE30E080202040802810D16006400E7D
:102B3000282148432946183140188078002803D0BE
:102B40000120009014E020E00020009010E08020A0
:102B5000204000280CD1282060432946903140189D
:102B60008078002802D00120009001E00020009031
:102B7000022269462846FFF72DFB04E0314628462D
:102B8000FFF713FB00BF00BF00E000BF00BF3846E7
:102B9000F8BD70B504460D460026A078032818D16C
:102BA0002879012810DCFF20093000592946826865
:102BB000204690470646E888002809D1002E07D114
:102BC0002046FFF718FB03E029462046FFF7EDFA01
:102BD00004E029462046FFF7E8FA00BF00BF304670
:102BE00070BD10B50446A078E0700420A070FF21ED
:102BF0000D310959C8688047002010BD70B50546E1
:102C00000C462246024903A0FFF79FFC004870BD16
:102C10006C1200204D534320436F6E6669670000BD
:102C200070470000024612200880014870470000EB
:102C30002C4C0008704770477047704770B50546C8
:102C40000C462246024903A0FFF77FFC004870BDF6
:102C50006C1200204D534320496E746572666163A7
:102C6000650000000246042008800148704700000B
:102C7000484C000870B505460C462246024903A0A0
:102C8000FFF763FC004870BD6C12002053544D697F
:102C900063726F656C656374726F6E696373000055
:102CA00070B505460C462246024903A0FFF74DFCCD
:102CB000004870BD6C1200204D6173732053746F17
:102CC0007261676520696E204653204D6F64650010
:102CD00002461A20088001487047000020000020AA
:102CE00038B504461F21684601700021417001215A
:102CF0008170FEF779F938BD10B504460121C80589
:102D0000FEF72AFA0020FEF757FAFDF751FA10BD38
:102D100010B500F001F810BD08B5002100913F4842
:102D2000406881B20091684600880121C9030840CB
:102D30003B4909680840002801D0FDF769FA684658
:102D400000880121890208403549096808400028A7
:102D50000BD0344831494860334800680169334832
:102D6000884700213148FDF793FD6846008801211E
:102D7000490308402A4909680840002802D02C4825
:102D80002649486068460088012109030840244913
:102D90000968084000280AD026482049486022488F
:102DA00000688169214888470020FEF713FA6846C9
:102DB00000880121C9020840194909680840002813
:102DC00009D01D48154948601748006841691748EF
:102DD0008847FFF729F96846008801214902084021
:102DE0000F4909680840002807D014480B4948607B
:102DF0000D480068C1680D48884768460088FF2173
:102E000001310840064909680840002805D00C48EF
:102E1000024948600720FEF7DDF908BD405C00402C
:102E2000C4000020FFFB0000E4000020040100209B
:102E3000FFDF0000FFEF0000FFF70000FFFD0000D4
:102E4000FFFE0000F8B5571C7F100097074FCD1903
:102E5000009B08E00478401C07783E0226432E8041
:102E6000AD1C401C5B1E002BF4D1F8BD006000407F
:102E700030B47446641E2578641CAB4204D3635D91
:102E80005B00E31830BC18471D46F8E702E008C8AD
:102E9000121F08C1002AFAD170477047002001E0D4
:102EA00001C1121F002AFBD17047000070B5044613
:102EB0000D46607801232A462146303100F0ADFDF1
:102EC000002801D0032070BD20463030FF30FF3095
:102ED0004078010220463030FF30E130807F0143EE
:102EE0001848814201D00220EDE76920005D01060B
:102EF0006820005D000408436721095D090208435A
:102F00006621095D08430002000A0F49884201D189
:102F10000020D8E78520005D01068420005D0004C4
:102F200008438321095D090208438221095D0843A2
:102F30000002000A0449884201D10020C3E70120B1
:102F4000C1E7000055AA000046415400024600E0D7
:102F5000521C1078002802D010788842F8D11078DE
:102F60007047000030B502460B460020044601467B
:102F70001EE00C2048431C4D2858002816D00C2079
:102F8000484328581568A84211D10C204843164DD3
:102F9000401940689568A84209D10C204843124D59
:102FA00040190089D588A84201D103E0641C491C5E
:102FB0000229DED300BF022907D1002C01D1022B48
:102FC00001D1002030BD1220FCE7002B08D10C20DD
:102FD0004843054D40194089FF250135A84201D1DC
:102FE0001020EFE70020EDE7AC120020F7B58CB021
:102FF0000C98006802900298007830380A900A987D
:1030000009280AD8029840783A2806D10298801CEC
:1030100002900C990298086001E000200A900A983A
:10302000002802D00B200FB0F0BD0A988000FA49AA
:103030000C580D980460002C01D10C20F3E7207887
:10304000002814D0607800F0F4FC09900998C007BB
:10305000C00F00280BD10E98002806D00421099833
:103060000840002801D00A20DDE70020DBE700202F
:1030700020700A986070607800F0A0FC09900998B0
:10308000C007C00F002801D00320CCE7607822469B
:103090000A32022100F095FC002801D00120C2E78D
:1030A0000E98002806D0042109980840002801D075
:1030B0000A20B8E70020014608902046FFF7F6FEF8
:1030C0000546012D1BD12046FF30EF300B900B98A9
:1030D0000079002813D00B98C07A01060B98807AEB
:1030E000000408430B99497A090208430B99097AAD
:1030F0000843089020460899FFF7D8FE0546032D9F
:1031000001D101208FE7002D01D00D208BE73C205D
:10311000005D00023B21095D08436189884201D0BE
:103120000D2080E74720005D07024621095D0F431F
:10313000002F0ED15720005D01065620005D0004CF
:1031400008435521095D090208435421095D0843DC
:103150000746E7614020065DE670012E03D0022E8F
:1031600001D00D205FE73846704307463D20005DE3
:103170000646A070002E03D0701E3040002801D0FB
:103180000D2050E74220005D00024121095D084307
:1031900020816089C217D30E1A185111019020891D
:1031A000FCF7BCFF002901D00D203CE74420005D66
:1031B00000024321095D08430790079800280ED1BB
:1031C0005320005D01065220005D00040843512198
:1031D000095D090208435021095D084307903F201B
:1031E000005D00023E21095D08430390039800281A
:1031F00001D10D2017E76089C217D30E1A1851119B
:1032000001902089FCF78AFF01460398C01908182D
:10321000069007990698814201D20D2003E7A17814
:10322000069B079AD01AFCF763FF059005980028C3
:1032300001D10D20F7E6012578490598884200D391
:10324000022577490598884200D303250598801CFC
:10325000A061069908984018A06203990898401840
:103260002062032D17D12089002801D00D20DAE635
:103270005F20005D01065E20005D000408435D21C3
:10328000095D090208435C21095D08436062A06989
:103290008000049015E02089002801D10D20C2E6AD
:1032A000206AC0196062022D02D1A069400007E0C7
:1032B000A069410040184008217EC907C90F401885
:1032C000049061894A1E049BD018FCF711FFE16944
:1032D000884201D90D20A6E60020C04320610020CD
:1032E000E060032D7ED160716120005D01026020ED
:1032F000005D0143089808186061607862690123E5
:1033000021463031019000F088FB002874D120461E
:103310003030FF30FF304078010220463030FF303F
:10332000E130807F01433F48814265D13320005D19
:1033300000063221095D090408433121095D0902B3
:1033400008433021095D08433749884254D120465B
:103350003030FF30E530C078010620463030FF3095
:10336000E53080780004084321463031FF31E531F3
:1033700049780902084321463031FF31E1310979AA
:1033800008432A49884237D120463030FF30ED309B
:10339000C078010620463030FF30ED3080780004E0
:1033A000084321463031FF31ED31497809020843A5
:1033B00021463031FF31E131097B0843E06020468E
:1033C0003030FF30E930C078010620463030FF3021
:1033D000E93080780004084321463031FF31E9317B
:1033E000497800E008E00902084321463031FF3106
:1033F000E131097A0843206125700D480088401C9E
:1034000080B20B490880E0800020E06220712046F5
:1034100000F010F8002006E6F0000020F60F000093
:10342000F6FF000055AA00005252614172724161DC
:10343000F400002010B5014600200BE00C224243AE
:10344000064B9A588A4204D100230C224243034C73
:10345000A350401C0228F1D310BD0000AC12002084
:103460000246891E9069801E884201D8002070475C
:1034700090784843936AC018F9E70000F3B581B02B
:1034800004460298002807D1E768002F02D0A069FF
:10349000B84210D801270EE02046029900F0B9FE8C
:1034A0000646022E01D20120FEBDA069B04201D91C
:1034B0003046F9E7029F3D4600BF6D1CA069A84257
:1034C00004D80225BD4201D90020EDE72946204657
:1034D00000F09FFE0646002E00D10AE0701C002876
:1034E00001D0012E01D13046DEE7BD42E5D10020FA
:1034F000DAE700BF144A2946204601F052F800904E
:103500000098002808D10298002805D02A462046B5
:10351000029901F046F80090009800280AD1E56071
:103520002069401C00280CD02069401E2061012029
:10353000607106E00098012801D1801E00E00120A2
:1035400005462846B0E70000FFFFFF0FF3B583B044
:103550000498076800E07F1C38782F28FBD0387863
:103560005C28F8D0039886690B222021304600F0B1
:10357000D3FF0025009501950820029000BF019817
:10358000411C01913C5C202C03DD2F2C01D05C2CD4
:1035900000D137E02E2C03D00299009888420ED338
:1035A0000298082801D12E2C02D0062005B0F0BDCB
:1035B000082000900B200290A806050EDFE7802C63
:1035C00003DB032005430620F0E7214622A0FFF796
:1035D000BDFC002801D00620E8E7412C04DB5A2C72
:1035E00002DC0220054308E0612C06DB7A2C04DCB7
:1035F0000120054320462038C4B20098411C0091A8
:103600003454BCE700BF0198391804980160202C9D
:1036100001DC042000E0002004460098002801D1CD
:103620000620C3E73078E52801D1052030700298E4
:10363000082801D1A806050EA807800F012801D18E
:10364000102004430C202840042801D10820044302
:10365000F4720020AAE70000222A2B2C3A3B3C3DC2
:103660003E3F5B5D7C7F000030B50246531E1A462C
:10367000022B1BD20C2353430D4C1B195989FF23DA
:103680000133994200D10021002901D04B1E99B28B
:103690000C235343064C1B195981002904D10024E3
:1036A0000C235343024DEC50002000E0022030BDBB
:1036B000AC120020F8B504460021204600F00BF9BA
:1036C0000546002D01D02846F8BD00BF21692068BD
:1036D00000F02CFF0546002D00D019E06669377810
:1036E000002F01D1042513E0F07A082108400028BA
:1036F00007D10B223046A16900F0ECFE002800D172
:1037000006E00021204600F006F80546002DDDD039
:1037100000BF2846D8E7F3B581B00446E088401CD6
:1037200086B2002E02D02069002801D10420FEBDFF
:1037300020684789F817C00EC01941113046FCF7C0
:10374000EDFC00297CD12069401C2061E068002844
:1037500005D120680089B04272DC0420E7E72068C8
:103760004789F817C00EC01941113046FCF7D6FC46
:1037700021688978491E0840002861D1E1682068E5
:1037800000F047FD0546012D01D80220CFE7681C57
:10379000002801D10120CAE720688069A84249D8E1
:1037A0000298002801D10420C1E7E1682068FFF7F2
:1037B00065FE0546002D01D10720B8E7012D01D196
:1037C0000220B4E7681C002801D10120AFE70021E6
:1037D000206800F0ABFE002801D00120A7E7216897
:1037E0004A8908463030002100F096FE29462068BC
:1037F000FFF736FE2168C862002711E0012021682A
:1038000008710021206800F091FE002801D00120FD
:103810008DE72068C06A401C2168C862781CC7B266
:1038200020688078B842E9DC2068C06AC01B216843
:10383000C86200BFE56029462068FFF711FE2061DD
:10384000E68020684789F817C00EC019411130463C
:10385000FCF764FC490120683030081860610020E2
:1038600065E7F8B504460021204600F034F8054627
:10387000002D17D100BF2169206800F057FE0546D2
:10388000002D00D00DE060690678E52E01D0002EF5
:1038900000D106E001212046FFF73DFF0546002D3F
:1038A000E9D000BF002D14D12169206800F03EFE50
:1038B0000546002D0DD1676920220021384600F011
:1038C0002BFE0B223846A16900F019FE0120216869
:1038D00008712846F8BDFEB504460E46E680A56888
:1038E000012D03D020688069A84201D80220FEBDC6
:1038F000002D05D120680078032801D12068456A91
:10390000002D14D1E56020680089B04201DC02205E
:10391000EDE720684789F817C00EC01941113046FD
:10392000FCF7FCFB2168496A4018206136E02168F9
:103930004889C117C90E0918491122689278514364
:1039400089B2019114E02946206800F062FC054626
:10395000681C002801D10120C9E7022D03D320688B
:103960008069A84201D80220C1E70198301A86B2C6
:1039700001988642E7DAE56029462068FFF770FD86
:103980000746206840890090C017C20E00981018A2
:1039900041113046FCF7C2FB381820612068478986
:1039A000F817C00EC01941113046FCF7B7FB4901AA
:1039B0002068303008186061002098E70146002038
:1039C0007047FEB50E461446002001903300FFF705
:1039D0004FFA050409050D111E001BE0012000032C
:1039E000208017E001204002206013E00120000346
:1039F00020600FE02768606800903D4603E02803E0
:103A000000F0CCFE6D1C00988542F8D902E004203D
:103A1000019000BF00BF0198FEBDF8B507460C46F7
:103A200015461E4632462946204600F0A9FF0020D2
:103A3000F8BD014600207047F8B507460C4615460C
:103A40001E4632462946204600F0A6FF0020F8BD5B
:103A50000246002100E0491C022905D20C204843FF
:103A6000044B18580028F6D1022901D001207047D4
:103A70000020FCE7AC12002070B50446204600F0A0
:103A800001FA0546002D03D1606AFFF7EDFD0546FA
:103A9000002D01D100202060284670BD70B504467D
:103AA0000D46012C01DB0B2070BDA00008490E580B
:103AB000002E04D03046FFF7BDFC00203070002DF2
:103AC00001D000202870A00001490D500020EBE734
:103AD000F0000020F7B58CB005461646002028609F
:103AE000F606F60E7208520005A90DA8FFF77EFA39
:103AF000074602A80B90002F04D105A80D9900F0ED
:103B000035FB07460A9C002F0FD1002C01D1062758
:103B10000BE070084000002801D0012000E00020E8
:103B2000014605A8FFF71EFA07461C203040002872
:103B300066D0002F10D0042F0AD10598FFF788FF18
:103B4000002803D005A8FFF78CFE00E012200746EE
:103B5000082006430A9C0BE0E07A11210840002867
:103B600001D0072704E004203040002800D00827B7
:103B7000002F44D108203040002840D000F0E2FB64
:103B800001900198A07301980004010EE17301985F
:103B90000002010E21740198010E61740020E07290
:103BA000207700216177A177E177607D0002217D98
:103BB00008430004E17E0902A27E114308430090FD
:103BC0000020A0760021E17620756175012005991D
:103BD00008710098002812D00598C06A01900099D9
:103BE000059800F0A4FD0746002F08D10098401E5C
:103BF0000599C8600199059800F098FC074612E005
:103C0000002F10D1E07A10210840002801D00427AD
:103C100009E002203040002805D0E07AC007C00F3C
:103C2000002800D00727002F19D108203040002895
:103C300001D0202006430598C06AE8612C62700814
:103C40004000002801D0012000E00020014605A826
:103C500000F07AFB6862686A002800D10227002F12
:103C60001ED1AE71607D0002217D08430004E17E1B
:103C70000902A27E114308432861E07F0006A17F6C
:103C800009040843617F09020843217F0843E86073
:103C90000020A860A861059828600598C088A880C1
:103CA00038460FB0F0BDFFB587B0044615460898FA
:103CB000019000210A980160A188206800F01DFF92
:103CC00006900698002802D006980BB0F0BDA079A7
:103CD00080210840002801D00220F6E7A079C00723
:103CE000C00F002801D10720EFE7A168E068401A63
:103CF00004900498854200D9049DBEE02268518951
:103D0000A068FCF7F5F900297DD122685189A068E7
:103D1000FCF7EEF921688978491E0840C0B202908C
:103D2000029800281FD1A068002802D120690590C0
:103D300004E06169206800F06CFA0590059802289B
:103D400005D2A07980210843A0710220BDE7059823
:103D5000401C002805D1A07980210843A0710120D2
:103D6000B3E70598606161692068FFF779FB064653
:103D7000002E05D1A07980210843A0710220A4E77C
:103D800002983618206841892846FCF7B1F903905B
:103D9000039800283ED0039902984018216889783A
:103DA000884204D9206881780298081A0390039801
:103DB000C3B220684078324600900199FFF72DFE8B
:103DC000002805D0A07980210843A07101207CE75C
:103DD00020680079002815D02068C06A811B0398EC
:103DE00081420FD22068C06A801B23685B895843D8
:103DF000019BC0180090206842890146303100982C
:103E000000F07DFB00E006E020684089039948430C
:103E1000074626E0A66122685189A068FCF768F988
:103E200020684089471AAF4200D92F46A16920680F
:103E300000F07CFB002805D0A07980210843A07108
:103E4000012042E722685189A068FCF751F92068F7
:103E5000303008183A4601460090019800F04FFBB8
:103E600000BF0198C0190190A068C019A0600A980D
:103E70000068C1190A980160ED1B002D00D03DE7D4
:103E8000002022E7F8B50446A188206800F035FE3E
:103E90000746002F41D1A0792021084000283CD0BE
:103EA000E169206800F042FB0746002F35D1256A02
:103EB000E87A20210843E872207B2877A089000453
:103EC000010E6977E0680002010EA977E068010E33
:103ED000E977207CA876208A0004010EE976206923
:103EE0000002000E28752069010E697500F02AFA9B
:103EF0000646AE753004010EE9753002010E2976D2
:103F0000310E6976A07920218843A07101202168B3
:103F10000871206800F05BFD07463846F8BDFFB524
:103F200087B0044615460898039000210A9801605E
:103F3000A188206800F0E1FD06900698002802D0D4
:103F400006980BB0F0BDA07980210840002801D070
:103F50000220F6E7A07902210840002801D10720BD
:103F6000EFE7E0684019E168884200D20025EDE003
:103F700022685189A068FCF7BBF800297DD122682E
:103F80005189A068FCF7B4F821688978491E084077
:103F9000C0B20290029800282CD1A06800280BD152
:103FA00020690590059800280BD100212068FFF7B3
:103FB00065FA0590206104E061692068FFF75EFA08
:103FC00005900598002800D1C3E00598012805D187
:103FD000A07980210843A0710220B2E70598401C17
:103FE000002805D1A07980210843A0710120A8E70D
:103FF000059860612068C06AA16988420BD10021E0
:10400000206800F093FA002805D0A07980210843A9
:10401000A071012095E761692068FFF721FA064643
:10402000002E05D1A07980210843A071022088E7E5
:1040300002983618206841892846FCF759F8049000
:10404000049800283BD00499029840182168897888
:10405000884204D9206881780298081A049004984C
:10406000C3B220684078324601900399FFF7E4FC20
:10407000002807D0A079802100E033E00843A07138
:1040800001205EE72068C06A811B0498814210D23B
:104090002068C06A801B23685B895843039BC11852
:1040A000206842893030019000F029FA0020216810
:1040B0000871206840890499484307463AE0E1685E
:1040C000A06888420DD30021206800F02FFA002854
:1040D00005D0A07980210843A071012031E7206834
:1040E000C662A66122685189A068FCF701F82068C1
:1040F0004089471AAF4200D92F46A169206800F0D5
:1041000015FA002805D0A07980210843A07101206C
:1041100017E722685189A068FBF7EAFF2068303072
:1041200008183A460190039900F0E9F90120216846
:10413000087100BF0398C0190390A068C019A0605F
:104140000A980068C1190A980160ED1B002D00D083
:104150000EE700BFE168A068884201D9A068E0606E
:10416000A07920210843A0710020EAE6F3B581B0D0
:104170000446029800782F2803D0029800785C2823
:1041800002D10298401C02900020A06002980078A2
:10419000202807D200212046FFF79DFB064600207D
:1041A000606134E000BF02A92046FFF7CFF9064660
:1041B000002E00D02AE02046FFF77CFA0646A069D0
:1041C000C77A002E09D0042E00D01FE000BF0420C3
:1041D0003840002800D1052618E004203840002887
:1041E00000D013E06569E87A10210840002801D169
:1041F00005260BE0687D0002297D08430004E97E66
:104200000902AA7E11430843A060CCE700BF3046F4
:10421000FEBDFEB504460D46022D02D3A069A8429C
:1042200001D80120FEBD2078012804D002283FD00B
:10423000032812D15AE00295029D680840190290A5
:1042400061890298FBF754FF216A401801460190EA
:10425000204600F06BF9002800D06FE061890298D9
:10426000FBF746FF20463030475C0298401C029026
:1042700061890298FBF73CFF216A401801460190D2
:10428000204600F053F9002800D057E061890298D9
:10429000FBF72EFF20463030405C00020743E80762
:1042A000C00F002801D03809BCE73805000DB9E778
:1042B0006089C20F0190101841102846FBF718FFC3
:1042C000216A401801460090204600F02FF900288E
:1042D00000D033E061896800FBF70AFF20463030E8
:1042E0000E1870780002317808439BE760890190CE
:1042F000C017820F0198101881102846FBF7F8FEAE
:10430000216A401801460090204600F00FF900286D
:1043100000D013E06189A800FBF7EAFE20463030A8
:104320000E18F0780006B178090408437178090284
:104330000843317808430001000973E700BF0020FB
:10434000C0436FE70020704730B502460B4600219E
:1043500018E00C2048432E4C20581468A04210D17D
:104360000C2048432A4C001940689468A04208D1A8
:104370000C204843264C00190089D488A04200D163
:1043800002E0491C0229E4D300BF022922D1002106
:1043900000E0491C022905D20C2048431C4C20583F
:1043A0000028F6D1022901D1002030BD0C2048435D
:1043B000174D14682C500C204843401994684460F1
:1043C000D4880C2048434019048100240C20484321
:1043D00040194481002B08D00C2048430C4C001994
:1043E0004089002801D00020DFE7002B02D0FF2009
:1043F000013005E00C204843054C00194089401C61
:1044000084B20C204843024D40194481481CCCE73B
:10441000AC120020234B9D44FF220132224901A807
:10442000FBF790FE01214804FCF786FEFDF76CFBCC
:104430001E4B1F4A1F492048FEF7AEF800BF01215E
:104440000920C006FCF7C2FB0028F8D1FCF704FEE7
:1044500027E01A4800780A2823D14CA90020FFF74A
:104460001DFB174908700A2216A142A8FFF732FB6C
:104470001349087041ABFF22013201A942A8FFF79E
:104480004EFD0F49087042A8FFF7F6FA0C49087074
:1044900000210846FFF702FB094908700020074980
:1044A0000870D6E7A0EEFFFF2C4B00084400002068
:1044B00084000020040000200401002000000020EF
:1044C00001000020303A2F746573747573622E54A6
:1044D00058540000F8B503461C460D4600200090D5
:1044E00000BF1046521E002807D02078641C2E788A
:1044F0006D1C801B00900028F3D00098F8BD70B5AB
:1045000003460C4603E025781D70641C5B1C1546B1
:10451000521E002DF7D170BD30B5034601E0197071
:104520005B1C1446521E002CF9D130BDF8B5044670
:104530000D46E66AAE4232D02079002821D060785C
:104540000123324621463031FFF776FA002801D0A8
:104550000120F8BD00202071E169206A4018B042B6
:104560000FD9E7780AE0E0698619607801233246BE
:1045700021463031FFF760FA781EC7B2012FF2DC16
:1045800000BF002D0BD0607801232A462146303130
:10459000FFF743FA002801D00120DAE7E5620020A6
:1045A000D7E7F0B585B004460E461746022E02D373
:1045B000A069B04202D802200290B5E0207801281C
:1045C00004D0022855D0032873D173E00396039ECC
:1045D00070088019039061890398FBF789FD216AAF
:1045E0004018014601902046FFF7A0FF0290029874
:1045F000002800D095E061890398FBF779FD2046FB
:1046000030300D18F007C00F002805D028780007BB
:10461000000F3901084300E0384628700398401C19
:1046200003900120207161890398FBF761FD216AE5
:104630004018014601902046FFF778FF029002984B
:10464000002800D06DE061890398FBF751FD2046FA
:1046500030300D18F007C00F002802D03805000ECA
:1046600005E02878F02108403905090F0843287033
:1046700057E06089C20F0190101841103046FBF7D7
:1046800037FD216A4018014600902046FFF74EFF93
:1046900002900298002800D043E061897000FBF787
:1046A00027FD204630300D182F703804000E68703A
:1046B00037E033E060890190C017820F019810182D
:1046C00081103046FBF714FD216A40180146009026
:1046D0002046FFF72BFF02900298002800D020E030
:1046E0006189B000FBF704FD204630300D18E878F2
:1046F0000006A97809040843697809020843297863
:104700000843000F000707432F703804000E68703D
:104710003802000EA870380EE87002E00220029005
:1047200000BF00BF01202071029805B0F0BDF8B5B0
:1047300004460E46022E02D3A069B04201D80227D9
:1047400029E0002723E031462046FFF762FD0546B9
:10475000002D00D11EE0012D01D102271AE0681CB6
:10476000002801D1012715E0002231462046FFF73D
:1047700018FF0746002F00D00CE02069401C0028DD
:1047800004D02069401C2061012060712E46A06980
:10479000B042D8D800BF3846F8BD000010B5044676
:1047A00000F0AAF80022012109030E48FCF718FACC
:1047B000202000F047F8FF2109042140080C00F0F8
:1047C00041F8FF2109022140080A00F03BF8E0B25D
:1047D00000F038F8012211030248FCF701FA00F05A
:1047E0004BF810BD0004004870B505460C4616464F
:1047F0000022012109031248FCF7F2F9032000F01E
:1048000021F8FF2109042140080C00F01BF8FF21CA
:1048100009022140080A00F015F8E0B200F012F891
:1048200006E0002000F00EF828706D1C701E86B2A5
:10483000002EF6DC012211030148FCF7D1F970BD0E
:104840000004004810B5044600BF02210948FDF7E6
:10485000E9F90128F9D121460648FDF729FA00BFF8
:1048600001210448FDF7DEF90128F9D10148FDF7DF
:104870000FFA10BD0038004010B5002400220121BD
:1048800009030A48FCF7ACF90520FFF7DBFF00BF7E
:104890000020FFF7D7FF0446E007C00F0028F7D13C
:1048A000012211030148FCF79BF910BD00040048E8
:1048B000F8B506460F46144600252046E117090EB6
:1048C000091809040D0E002D05D12246394630463F
:1048D00000F024F80EE00BE0FF22013239463046AA
:1048E00000F01CF8FF370137FF360136681EC5B2ED
:1048F000002DF1DCF8BD000010B5002201210903F4
:104900000548FCF76DF90620FFF79CFF0122110313
:104910000148FCF765F910BD0004004870B5054674
:104920000C461646FFF7E8FF002201210903134851
:10493000FCF756F90220FFF785FFFF21090421400B
:10494000080CFFF77FFFFF2109022140080AFFF74B
:1049500079FFE0B2FFF776FF05E02878FFF772FFF6
:104960006D1C701E86B2002EF7DC01221103034875
:10497000FCF736F9FFF780FF70BD00000004004827
:10498000F8B506460C46154627032807020C39469B
:104990003046FFF729FFF8BDF7B50D46164600244F
:1049A00000272C030DE039030819FFF7F7FE012259
:1049B000120321460098FFF77BFF01200003241813
:1049C0007F1C3046711E8EB20028ECD1FEBD70B542
:1049D000044600212046FFF7A9FD0546002D7ED1A3
:1049E000207803287FD1607900287CD00020E06205
:1049F00001225202002120463030FFF78DFD552163
:104A000020463030FF30E1308177AA212046303017
:104A1000FF30FF30417052213020015531200155C7
:104A20006121322001554121332001557221204658
:104A30003030FF30E130017120463030FF30E5305A
:104A40004170412120463030FF30E53081706121D6
:104A500020463030FF30E530C170217C20463030B8
:104A6000FF30E1300172208A0004010E2046303010
:104A7000FF30E930417020690002010E20463030DD
:104A8000FF30E93081702069010E20463030FF3060
:104A9000E930C170217B20463030FF30E1300173B6
:104AA000A0890004010E20463030FF30ED30417007
:104AB000E0680002010E20463030FF30ED3081709A
:104AC000E068010E20463030FF30ED30C170607874
:104AD0000123214630316269FEF7AEFF01E00AE0B2
:104AE00001E000206071607800221146FEF769FF46
:104AF000002800D00125284670BD70B504460D463B
:104B0000002C05D02078002802D0E088A84201D0EF
:104B1000092070BD6078FEF78CFFC007C00F002829
:104B200001D00320F5E70020F3E700004669726D2D
:104B300077617265204C6962726172792045786193
:104B40006D706C653A20636F6D6D756E696361742D
:104B5000696F6E207769746820616E204D32355020
:104B600036342053504920464C41534853544D331A
:104B7000324631307820535049204669726D776152
:104B8000726520000000000000000000000000002E
:104B90000000000000000000000000000000000015
:104BA0000000000000000000000000000000000005
:104BB00000000000000000000000000000000000F5
:104BC00000000000000000000000000000000000E5
:104BD00000000000000000000000000000000000D5
:104BE00000000000000000000000000000000000C5
:104BF00000000000000000000000000000000000B5
:104C000000000000000000000000000000000000A4
:104C10000000000000000000000000000000000094
:104C2000000000000000000000000000120100026F
:104C300000000040830420570002010203010A061D
:104C40000002000000400100040309040080020289
:104C50001F00000053544D20202020206D696372F6
:104C60006F534420466C617368202020312E303011
:104C700009022000010104C03209040000020806F4
:104C800050050705810240000007050202400000B0
:104C9000000000030080830000000000000000000E
:104CA0000600000000000000C84C000800000020C2
:104CB000040100008C2E0008CC4D000804010020E7
:104CC0006C3600009C2E000800000000252C000817
:104CD000652C0008752C0008A12C0008D12C0008B8
:104CE000FD2B00083D2C00081A0300000000000006
:104CF00000000000000000000000000000000000B4
:104D00000000000000000000000000003B2C000834
:104D1000352C0008212C0008392C0008372C0008FD
:104D200000000000CF1C0008BB1C0008D51C0008B8
:104D3000DB1C0008E11C0008F91C0008CB1C000863
:104D40004C4C00085C0000200000000035260008E4
:104D5000032600087526000800000000000000007F
:104D6000DF250008F12500080000000025260008C6
:104D70000000000000000000000000000000000033
:104D80000000000000000000000000000000000023
:104D9000DD2200081122000871290008F32700080D
:104DA00095270008E32B0008DD270008C800002035
:104DB00000000000000000000000000000000000F3
:0C4DC000000000000000000000000000E7
:04000005080000C12E
:00000001FF
